{
  "_format": "hh-sol-artifact-1",
  "contractName": "MyNFT",
  "sourceName": "contracts/nftMint.sol",
  "abi": [
    {
      "inputs": [],
      "stateMutability": "nonpayable",
      "type": "constructor"
    },
    {
      "anonymous": false,
      "inputs": [
        {
          "indexed": true,
          "internalType": "address",
          "name": "owner",
          "type": "address"
        },
        {
          "indexed": true,
          "internalType": "address",
          "name": "approved",
          "type": "address"
        },
        {
          "indexed": true,
          "internalType": "uint256",
          "name": "tokenId",
          "type": "uint256"
        }
      ],
      "name": "Approval",
      "type": "event"
    },
    {
      "anonymous": false,
      "inputs": [
        {
          "indexed": true,
          "internalType": "address",
          "name": "owner",
          "type": "address"
        },
        {
          "indexed": true,
          "internalType": "address",
          "name": "operator",
          "type": "address"
        },
        {
          "indexed": false,
          "internalType": "bool",
          "name": "approved",
          "type": "bool"
        }
      ],
      "name": "ApprovalForAll",
      "type": "event"
    },
    {
      "anonymous": false,
      "inputs": [
        {
          "indexed": false,
          "internalType": "uint256",
          "name": "_fromTokenId",
          "type": "uint256"
        },
        {
          "indexed": false,
          "internalType": "uint256",
          "name": "_toTokenId",
          "type": "uint256"
        }
      ],
      "name": "BatchMetadataUpdate",
      "type": "event"
    },
    {
      "anonymous": false,
      "inputs": [
        {
          "indexed": false,
          "internalType": "uint256",
          "name": "_tokenId",
          "type": "uint256"
        }
      ],
      "name": "MetadataUpdate",
      "type": "event"
    },
    {
      "anonymous": false,
      "inputs": [
        {
          "indexed": true,
          "internalType": "address",
          "name": "from",
          "type": "address"
        },
        {
          "indexed": true,
          "internalType": "address",
          "name": "to",
          "type": "address"
        },
        {
          "indexed": true,
          "internalType": "uint256",
          "name": "tokenId",
          "type": "uint256"
        }
      ],
      "name": "Transfer",
      "type": "event"
    },
    {
      "inputs": [
        {
          "internalType": "address",
          "name": "to",
          "type": "address"
        },
        {
          "internalType": "uint256",
          "name": "tokenId",
          "type": "uint256"
        }
      ],
      "name": "approve",
      "outputs": [],
      "stateMutability": "nonpayable",
      "type": "function"
    },
    {
      "inputs": [
        {
          "internalType": "address",
          "name": "owner",
          "type": "address"
        }
      ],
      "name": "balanceOf",
      "outputs": [
        {
          "internalType": "uint256",
          "name": "",
          "type": "uint256"
        }
      ],
      "stateMutability": "view",
      "type": "function"
    },
    {
      "inputs": [
        {
          "internalType": "uint256",
          "name": "tokenId",
          "type": "uint256"
        }
      ],
      "name": "getApproved",
      "outputs": [
        {
          "internalType": "address",
          "name": "",
          "type": "address"
        }
      ],
      "stateMutability": "view",
      "type": "function"
    },
    {
      "inputs": [],
      "name": "getBalance",
      "outputs": [
        {
          "internalType": "uint256",
          "name": "",
          "type": "uint256"
        }
      ],
      "stateMutability": "view",
      "type": "function"
    },
    {
      "inputs": [],
      "name": "id",
      "outputs": [
        {
          "internalType": "uint256",
          "name": "",
          "type": "uint256"
        }
      ],
      "stateMutability": "view",
      "type": "function"
    },
    {
      "inputs": [
        {
          "internalType": "address",
          "name": "owner",
          "type": "address"
        },
        {
          "internalType": "address",
          "name": "operator",
          "type": "address"
        }
      ],
      "name": "isApprovedForAll",
      "outputs": [
        {
          "internalType": "bool",
          "name": "",
          "type": "bool"
        }
      ],
      "stateMutability": "view",
      "type": "function"
    },
    {
      "inputs": [
        {
          "internalType": "uint256",
          "name": "amount",
          "type": "uint256"
        },
        {
          "internalType": "string",
          "name": "uri",
          "type": "string"
        }
      ],
      "name": "mint",
      "outputs": [],
      "stateMutability": "payable",
      "type": "function"
    },
    {
      "inputs": [],
      "name": "name",
      "outputs": [
        {
          "internalType": "string",
          "name": "",
          "type": "string"
        }
      ],
      "stateMutability": "view",
      "type": "function"
    },
    {
      "inputs": [],
      "name": "owner",
      "outputs": [
        {
          "internalType": "address",
          "name": "",
          "type": "address"
        }
      ],
      "stateMutability": "view",
      "type": "function"
    },
    {
      "inputs": [
        {
          "internalType": "uint256",
          "name": "tokenId",
          "type": "uint256"
        }
      ],
      "name": "ownerOf",
      "outputs": [
        {
          "internalType": "address",
          "name": "",
          "type": "address"
        }
      ],
      "stateMutability": "view",
      "type": "function"
    },
    {
      "inputs": [],
      "name": "price",
      "outputs": [
        {
          "internalType": "uint256",
          "name": "",
          "type": "uint256"
        }
      ],
      "stateMutability": "view",
      "type": "function"
    },
    {
      "inputs": [
        {
          "internalType": "address",
          "name": "from",
          "type": "address"
        },
        {
          "internalType": "address",
          "name": "to",
          "type": "address"
        },
        {
          "internalType": "uint256",
          "name": "tokenId",
          "type": "uint256"
        }
      ],
      "name": "safeTransferFrom",
      "outputs": [],
      "stateMutability": "nonpayable",
      "type": "function"
    },
    {
      "inputs": [
        {
          "internalType": "address",
          "name": "from",
          "type": "address"
        },
        {
          "internalType": "address",
          "name": "to",
          "type": "address"
        },
        {
          "internalType": "uint256",
          "name": "tokenId",
          "type": "uint256"
        },
        {
          "internalType": "bytes",
          "name": "data",
          "type": "bytes"
        }
      ],
      "name": "safeTransferFrom",
      "outputs": [],
      "stateMutability": "nonpayable",
      "type": "function"
    },
    {
      "inputs": [
        {
          "internalType": "address",
          "name": "operator",
          "type": "address"
        },
        {
          "internalType": "bool",
          "name": "approved",
          "type": "bool"
        }
      ],
      "name": "setApprovalForAll",
      "outputs": [],
      "stateMutability": "nonpayable",
      "type": "function"
    },
    {
      "inputs": [],
      "name": "supplyNFT",
      "outputs": [
        {
          "internalType": "uint256",
          "name": "",
          "type": "uint256"
        }
      ],
      "stateMutability": "view",
      "type": "function"
    },
    {
      "inputs": [],
      "name": "supplyTotal",
      "outputs": [
        {
          "internalType": "uint256",
          "name": "",
          "type": "uint256"
        }
      ],
      "stateMutability": "view",
      "type": "function"
    },
    {
      "inputs": [
        {
          "internalType": "bytes4",
          "name": "interfaceId",
          "type": "bytes4"
        }
      ],
      "name": "supportsInterface",
      "outputs": [
        {
          "internalType": "bool",
          "name": "",
          "type": "bool"
        }
      ],
      "stateMutability": "view",
      "type": "function"
    },
    {
      "inputs": [],
      "name": "symbol",
      "outputs": [
        {
          "internalType": "string",
          "name": "",
          "type": "string"
        }
      ],
      "stateMutability": "view",
      "type": "function"
    },
    {
      "inputs": [
        {
          "internalType": "uint256",
          "name": "_id",
          "type": "uint256"
        }
      ],
      "name": "tokenURI",
      "outputs": [
        {
          "internalType": "string",
          "name": "",
          "type": "string"
        }
      ],
      "stateMutability": "view",
      "type": "function"
    },
    {
      "inputs": [
        {
          "internalType": "address",
          "name": "from",
          "type": "address"
        },
        {
          "internalType": "address",
          "name": "to",
          "type": "address"
        },
        {
          "internalType": "uint256",
          "name": "tokenId",
          "type": "uint256"
        }
      ],
      "name": "transferFrom",
      "outputs": [],
      "stateMutability": "nonpayable",
      "type": "function"
    },
    {
      "inputs": [],
      "name": "withdraw",
      "outputs": [],
      "stateMutability": "nonpayable",
      "type": "function"
    }
  ],
  "bytecode": "0x608060405260006007556009600a55655af3107a4000600b556040518060800160405280605181526020016200315d60519139600c9080519060200190620000499291906200013f565b503480156200005757600080fd5b506040518060400160405280600781526020017f6e6f6f624e4654000000000000000000000000000000000000000000000000008152506040518060400160405280600381526020017f4e4f4200000000000000000000000000000000000000000000000000000000008152508160009080519060200190620000dc9291906200013f565b508060019080519060200190620000f59291906200013f565b50505033600860006101000a81548173ffffffffffffffffffffffffffffffffffffffff021916908373ffffffffffffffffffffffffffffffffffffffff16021790555062000253565b8280546200014d906200021e565b90600052602060002090601f016020900481019282620001715760008555620001bd565b82601f106200018c57805160ff1916838001178555620001bd565b82800160010185558215620001bd579182015b82811115620001bc5782518255916020019190600101906200019f565b5b509050620001cc9190620001d0565b5090565b5b80821115620001eb576000816000905550600101620001d1565b5090565b7f4e487b7100000000000000000000000000000000000000000000000000000000600052602260045260246000fd5b600060028204905060018216806200023757607f821691505b6020821081036200024d576200024c620001ef565b5b50919050565b612efa80620002636000396000f3fe60806040526004361061012a5760003560e01c806370a08231116100ab578063a22cb4651161006f578063a22cb465146103d3578063af640d0f146103fc578063b88d4fde14610427578063c87b56dd14610450578063e651e04c1461048d578063e985e9c5146104b85761012a565b806370a08231146102f957806377097fc8146103365780638da5cb5b1461035257806395d89b411461037d578063a035b1fe146103a85761012a565b806323b872dd116100f257806323b872dd146102285780633ccfd60b1461025157806342842e0e146102685780634c73501a146102915780636352211e146102bc5761012a565b806301ffc9a71461012f57806306fdde031461016c578063081812fc14610197578063095ea7b3146101d457806312065fe0146101fd575b600080fd5b34801561013b57600080fd5b5061015660048036038101906101519190611e52565b6104f5565b6040516101639190611e9a565b60405180910390f35b34801561017857600080fd5b50610181610556565b60405161018e9190611f4e565b60405180910390f35b3480156101a357600080fd5b506101be60048036038101906101b99190611fa6565b6105e8565b6040516101cb9190612014565b60405180910390f35b3480156101e057600080fd5b506101fb60048036038101906101f6919061205b565b61062e565b005b34801561020957600080fd5b50610212610745565b60405161021f91906120aa565b60405180910390f35b34801561023457600080fd5b5061024f600480360381019061024a91906120c5565b61074d565b005b34801561025d57600080fd5b506102666107ad565b005b34801561027457600080fd5b5061028f600480360381019061028a91906120c5565b610850565b005b34801561029d57600080fd5b506102a6610870565b6040516102b391906120aa565b60405180910390f35b3480156102c857600080fd5b506102e360048036038101906102de9190611fa6565b610876565b6040516102f09190612014565b60405180910390f35b34801561030557600080fd5b50610320600480360381019061031b9190612118565b6108fc565b60405161032d91906120aa565b60405180910390f35b610350600480360381019061034b919061227a565b6109b3565b005b34801561035e57600080fd5b50610367610aad565b6040516103749190612014565b60405180910390f35b34801561038957600080fd5b50610392610ad3565b60405161039f9190611f4e565b60405180910390f35b3480156103b457600080fd5b506103bd610b65565b6040516103ca91906120aa565b60405180910390f35b3480156103df57600080fd5b506103fa60048036038101906103f59190612302565b610b6b565b005b34801561040857600080fd5b50610411610b81565b60405161041e91906120aa565b60405180910390f35b34801561043357600080fd5b5061044e600480360381019061044991906123e3565b610b87565b005b34801561045c57600080fd5b5061047760048036038101906104729190611fa6565b610be9565b6040516104849190611f4e565b60405180910390f35b34801561049957600080fd5b506104a2610cab565b6040516104af91906120aa565b60405180910390f35b3480156104c457600080fd5b506104df60048036038101906104da9190612466565b610cb5565b6040516104ec9190611e9a565b60405180910390f35b6000634906490660e01b7bffffffffffffffffffffffffffffffffffffffffffffffffffffffff1916827bffffffffffffffffffffffffffffffffffffffffffffffffffffffff1916148061054f575061054e82610d49565b5b9050919050565b606060008054610565906124d5565b80601f0160208091040260200160405190810160405280929190818152602001828054610591906124d5565b80156105de5780601f106105b3576101008083540402835291602001916105de565b820191906000526020600020905b8154815290600101906020018083116105c157829003601f168201915b5050505050905090565b60006105f382610e2b565b6004600083815260200190815260200160002060009054906101000a900473ffffffffffffffffffffffffffffffffffffffff169050919050565b600061063982610876565b90508073ffffffffffffffffffffffffffffffffffffffff168373ffffffffffffffffffffffffffffffffffffffff16036106a9576040517f08c379a00000000000000000000000000000000000000000000000000000000081526004016106a090612578565b60405180910390fd5b8073ffffffffffffffffffffffffffffffffffffffff166106c8610e76565b73ffffffffffffffffffffffffffffffffffffffff1614806106f757506106f6816106f1610e76565b610cb5565b5b610736576040517f08c379a000000000000000000000000000000000000000000000000000000000815260040161072d9061260a565b60405180910390fd5b6107408383610e7e565b505050565b600047905090565b61075e610758610e76565b82610f37565b61079d576040517f08c379a00000000000000000000000000000000000000000000000000000000081526004016107949061269c565b60405180910390fd5b6107a8838383610fcc565b505050565b600860009054906101000a900473ffffffffffffffffffffffffffffffffffffffff1673ffffffffffffffffffffffffffffffffffffffff163373ffffffffffffffffffffffffffffffffffffffff161461080757600080fd5b3373ffffffffffffffffffffffffffffffffffffffff166108fc479081150290604051600060405180830381858888f1935050505015801561084d573d6000803e3d6000fd5b50565b61086b83838360405180602001604052806000815250610b87565b505050565b600a5481565b600080610882836112c5565b9050600073ffffffffffffffffffffffffffffffffffffffff168173ffffffffffffffffffffffffffffffffffffffff16036108f3576040517f08c379a00000000000000000000000000000000000000000000000000000000081526004016108ea90612708565b60405180910390fd5b80915050919050565b60008073ffffffffffffffffffffffffffffffffffffffff168273ffffffffffffffffffffffffffffffffffffffff160361096c576040517f08c379a00000000000000000000000000000000000000000000000000000000081526004016109639061279a565b60405180910390fd5b600360008373ffffffffffffffffffffffffffffffffffffffff1673ffffffffffffffffffffffffffffffffffffffff168152602001908152602001600020549050919050565b600b54826109c191906127e9565b600981905550600a54600754836109d89190612843565b1115610a19576040517f08c379a0000000000000000000000000000000000000000000000000000000008152600401610a10906128e5565b60405180910390fd5b6009543414610a5d576040517f08c379a0000000000000000000000000000000000000000000000000000000008152600401610a5490612951565b60405180910390fd5b60005b82811015610aa8576000610a74600d611302565b9050610a80600d611310565b610a8a3382611326565b610a948184611344565b508080610aa090612971565b915050610a60565b505050565b600860009054906101000a900473ffffffffffffffffffffffffffffffffffffffff1681565b606060018054610ae2906124d5565b80601f0160208091040260200160405190810160405280929190818152602001828054610b0e906124d5565b8015610b5b5780601f10610b3057610100808354040283529160200191610b5b565b820191906000526020600020905b815481529060010190602001808311610b3e57829003601f168201915b5050505050905090565b600b5481565b610b7d610b76610e76565b83836113ef565b5050565b60075481565b610b98610b92610e76565b83610f37565b610bd7576040517f08c379a0000000000000000000000000000000000000000000000000000000008152600401610bce9061269c565b60405180910390fd5b610be38484848461155b565b50505050565b60606000610bf56115b7565b905060006040518060400160405280600581526020017f2e6a736f6e00000000000000000000000000000000000000000000000000000081525090506000825111610c75576040518060400160405280600581526020017f4572726f72000000000000000000000000000000000000000000000000000000815250610ca2565b81610c7f85611649565b82604051602001610c92939291906129f5565b6040516020818303038152906040525b92505050919050565b6000600754905090565b6000600560008473ffffffffffffffffffffffffffffffffffffffff1673ffffffffffffffffffffffffffffffffffffffff16815260200190815260200160002060008373ffffffffffffffffffffffffffffffffffffffff1673ffffffffffffffffffffffffffffffffffffffff16815260200190815260200160002060009054906101000a900460ff16905092915050565b60007f80ac58cd000000000000000000000000000000000000000000000000000000007bffffffffffffffffffffffffffffffffffffffffffffffffffffffff1916827bffffffffffffffffffffffffffffffffffffffffffffffffffffffff19161480610e1457507f5b5e139f000000000000000000000000000000000000000000000000000000007bffffffffffffffffffffffffffffffffffffffffffffffffffffffff1916827bffffffffffffffffffffffffffffffffffffffffffffffffffffffff1916145b80610e245750610e2382611717565b5b9050919050565b610e3481611781565b610e73576040517f08c379a0000000000000000000000000000000000000000000000000000000008152600401610e6a90612708565b60405180910390fd5b50565b600033905090565b816004600083815260200190815260200160002060006101000a81548173ffffffffffffffffffffffffffffffffffffffff021916908373ffffffffffffffffffffffffffffffffffffffff160217905550808273ffffffffffffffffffffffffffffffffffffffff16610ef183610876565b73ffffffffffffffffffffffffffffffffffffffff167f8c5be1e5ebec7d5bd14f71427d1e84f3dd0314c0f7b2291e5b200ac8c7c3b92560405160405180910390a45050565b600080610f4383610876565b90508073ffffffffffffffffffffffffffffffffffffffff168473ffffffffffffffffffffffffffffffffffffffff161480610f855750610f848185610cb5565b5b80610fc357508373ffffffffffffffffffffffffffffffffffffffff16610fab846105e8565b73ffffffffffffffffffffffffffffffffffffffff16145b91505092915050565b8273ffffffffffffffffffffffffffffffffffffffff16610fec82610876565b73ffffffffffffffffffffffffffffffffffffffff1614611042576040517f08c379a000000000000000000000000000000000000000000000000000000000815260040161103990612a98565b60405180910390fd5b600073ffffffffffffffffffffffffffffffffffffffff168273ffffffffffffffffffffffffffffffffffffffff16036110b1576040517f08c379a00000000000000000000000000000000000000000000000000000000081526004016110a890612b2a565b60405180910390fd5b6110be83838360016117c2565b8273ffffffffffffffffffffffffffffffffffffffff166110de82610876565b73ffffffffffffffffffffffffffffffffffffffff1614611134576040517f08c379a000000000000000000000000000000000000000000000000000000000815260040161112b90612a98565b60405180910390fd5b6004600082815260200190815260200160002060006101000a81549073ffffffffffffffffffffffffffffffffffffffff02191690556001600360008573ffffffffffffffffffffffffffffffffffffffff1673ffffffffffffffffffffffffffffffffffffffff168152602001908152602001600020600082825403925050819055506001600360008473ffffffffffffffffffffffffffffffffffffffff1673ffffffffffffffffffffffffffffffffffffffff16815260200190815260200160002060008282540192505081905550816002600083815260200190815260200160002060006101000a81548173ffffffffffffffffffffffffffffffffffffffff021916908373ffffffffffffffffffffffffffffffffffffffff160217905550808273ffffffffffffffffffffffffffffffffffffffff168473ffffffffffffffffffffffffffffffffffffffff167fddf252ad1be2c89b69c2b068fc378daa952ba7f163c4a11628f55a4df523b3ef60405160405180910390a46112c083838360016117c8565b505050565b60006002600083815260200190815260200160002060009054906101000a900473ffffffffffffffffffffffffffffffffffffffff169050919050565b600081600001549050919050565b6001816000016000828254019250508190555050565b6113408282604051806020016040528060008152506117ce565b5050565b61134d82611781565b61138c576040517f08c379a000000000000000000000000000000000000000000000000000000000815260040161138390612bbc565b60405180910390fd5b806006600084815260200190815260200160002090805190602001906113b3929190611d43565b507ff8e1a15aba9398e019f0b49df1a4fde98ee17ae345cb5f6b5e2c27f5033e8ce7826040516113e391906120aa565b60405180910390a15050565b8173ffffffffffffffffffffffffffffffffffffffff168373ffffffffffffffffffffffffffffffffffffffff160361145d576040517f08c379a000000000000000000000000000000000000000000000000000000000815260040161145490612c28565b60405180910390fd5b80600560008573ffffffffffffffffffffffffffffffffffffffff1673ffffffffffffffffffffffffffffffffffffffff16815260200190815260200160002060008473ffffffffffffffffffffffffffffffffffffffff1673ffffffffffffffffffffffffffffffffffffffff16815260200190815260200160002060006101000a81548160ff0219169083151502179055508173ffffffffffffffffffffffffffffffffffffffff168373ffffffffffffffffffffffffffffffffffffffff167f17307eab39ab6107e8899845ad3d59bd9653f200f220920489ca2b5937696c318360405161154e9190611e9a565b60405180910390a3505050565b611566848484610fcc565b61157284848484611829565b6115b1576040517f08c379a00000000000000000000000000000000000000000000000000000000081526004016115a890612cba565b60405180910390fd5b50505050565b6060600c80546115c6906124d5565b80601f01602080910402602001604051908101604052809291908181526020018280546115f2906124d5565b801561163f5780601f106116145761010080835404028352916020019161163f565b820191906000526020600020905b81548152906001019060200180831161162257829003601f168201915b5050505050905090565b606060006001611658846119b0565b01905060008167ffffffffffffffff8111156116775761167661214f565b5b6040519080825280601f01601f1916602001820160405280156116a95781602001600182028036833780820191505090505b509050600082602001820190505b60011561170c578080600190039150507f3031323334353637383961626364656600000000000000000000000000000000600a86061a8153600a8581611700576116ff612cda565b5b049450600085036116b7575b819350505050919050565b60007f01ffc9a7000000000000000000000000000000000000000000000000000000007bffffffffffffffffffffffffffffffffffffffffffffffffffffffff1916827bffffffffffffffffffffffffffffffffffffffffffffffffffffffff1916149050919050565b60008073ffffffffffffffffffffffffffffffffffffffff166117a3836112c5565b73ffffffffffffffffffffffffffffffffffffffff1614159050919050565b50505050565b50505050565b6117d88383611b03565b6117e56000848484611829565b611824576040517f08c379a000000000000000000000000000000000000000000000000000000000815260040161181b90612cba565b60405180910390fd5b505050565b600061184a8473ffffffffffffffffffffffffffffffffffffffff16611d20565b156119a3578373ffffffffffffffffffffffffffffffffffffffff1663150b7a02611873610e76565b8786866040518563ffffffff1660e01b81526004016118959493929190612d5e565b6020604051808303816000875af19250505080156118d157506040513d601f19601f820116820180604052508101906118ce9190612dbf565b60015b611953573d8060008114611901576040519150601f19603f3d011682016040523d82523d6000602084013e611906565b606091505b50600081510361194b576040517f08c379a000000000000000000000000000000000000000000000000000000000815260040161194290612cba565b60405180910390fd5b805181602001fd5b63150b7a0260e01b7bffffffffffffffffffffffffffffffffffffffffffffffffffffffff1916817bffffffffffffffffffffffffffffffffffffffffffffffffffffffff1916149150506119a8565b600190505b949350505050565b600080600090507a184f03e93ff9f4daa797ed6e38ed64bf6a1f0100000000000000008310611a0e577a184f03e93ff9f4daa797ed6e38ed64bf6a1f0100000000000000008381611a0457611a03612cda565b5b0492506040810190505b6d04ee2d6d415b85acef81000000008310611a4b576d04ee2d6d415b85acef81000000008381611a4157611a40612cda565b5b0492506020810190505b662386f26fc100008310611a7a57662386f26fc100008381611a7057611a6f612cda565b5b0492506010810190505b6305f5e1008310611aa3576305f5e1008381611a9957611a98612cda565b5b0492506008810190505b6127108310611ac8576127108381611abe57611abd612cda565b5b0492506004810190505b60648310611aeb5760648381611ae157611ae0612cda565b5b0492506002810190505b600a8310611afa576001810190505b80915050919050565b600073ffffffffffffffffffffffffffffffffffffffff168273ffffffffffffffffffffffffffffffffffffffff1603611b72576040517f08c379a0000000000000000000000000000000000000000000000000000000008152600401611b6990612e38565b60405180910390fd5b611b7b81611781565b15611bbb576040517f08c379a0000000000000000000000000000000000000000000000000000000008152600401611bb290612ea4565b60405180910390fd5b611bc96000838360016117c2565b611bd281611781565b15611c12576040517f08c379a0000000000000000000000000000000000000000000000000000000008152600401611c0990612ea4565b60405180910390fd5b6001600360008473ffffffffffffffffffffffffffffffffffffffff1673ffffffffffffffffffffffffffffffffffffffff16815260200190815260200160002060008282540192505081905550816002600083815260200190815260200160002060006101000a81548173ffffffffffffffffffffffffffffffffffffffff021916908373ffffffffffffffffffffffffffffffffffffffff160217905550808273ffffffffffffffffffffffffffffffffffffffff16600073ffffffffffffffffffffffffffffffffffffffff167fddf252ad1be2c89b69c2b068fc378daa952ba7f163c4a11628f55a4df523b3ef60405160405180910390a4611d1c6000838360016117c8565b5050565b6000808273ffffffffffffffffffffffffffffffffffffffff163b119050919050565b828054611d4f906124d5565b90600052602060002090601f016020900481019282611d715760008555611db8565b82601f10611d8a57805160ff1916838001178555611db8565b82800160010185558215611db8579182015b82811115611db7578251825591602001919060010190611d9c565b5b509050611dc59190611dc9565b5090565b5b80821115611de2576000816000905550600101611dca565b5090565b6000604051905090565b600080fd5b600080fd5b60007fffffffff0000000000000000000000000000000000000000000000000000000082169050919050565b611e2f81611dfa565b8114611e3a57600080fd5b50565b600081359050611e4c81611e26565b92915050565b600060208284031215611e6857611e67611df0565b5b6000611e7684828501611e3d565b91505092915050565b60008115159050919050565b611e9481611e7f565b82525050565b6000602082019050611eaf6000830184611e8b565b92915050565b600081519050919050565b600082825260208201905092915050565b60005b83811015611eef578082015181840152602081019050611ed4565b83811115611efe576000848401525b50505050565b6000601f19601f8301169050919050565b6000611f2082611eb5565b611f2a8185611ec0565b9350611f3a818560208601611ed1565b611f4381611f04565b840191505092915050565b60006020820190508181036000830152611f688184611f15565b905092915050565b6000819050919050565b611f8381611f70565b8114611f8e57600080fd5b50565b600081359050611fa081611f7a565b92915050565b600060208284031215611fbc57611fbb611df0565b5b6000611fca84828501611f91565b91505092915050565b600073ffffffffffffffffffffffffffffffffffffffff82169050919050565b6000611ffe82611fd3565b9050919050565b61200e81611ff3565b82525050565b60006020820190506120296000830184612005565b92915050565b61203881611ff3565b811461204357600080fd5b50565b6000813590506120558161202f565b92915050565b6000806040838503121561207257612071611df0565b5b600061208085828601612046565b925050602061209185828601611f91565b9150509250929050565b6120a481611f70565b82525050565b60006020820190506120bf600083018461209b565b92915050565b6000806000606084860312156120de576120dd611df0565b5b60006120ec86828701612046565b93505060206120fd86828701612046565b925050604061210e86828701611f91565b9150509250925092565b60006020828403121561212e5761212d611df0565b5b600061213c84828501612046565b91505092915050565b600080fd5b600080fd5b7f4e487b7100000000000000000000000000000000000000000000000000000000600052604160045260246000fd5b61218782611f04565b810181811067ffffffffffffffff821117156121a6576121a561214f565b5b80604052505050565b60006121b9611de6565b90506121c5828261217e565b919050565b600067ffffffffffffffff8211156121e5576121e461214f565b5b6121ee82611f04565b9050602081019050919050565b82818337600083830152505050565b600061221d612218846121ca565b6121af565b9050828152602081018484840111156122395761223861214a565b5b6122448482856121fb565b509392505050565b600082601f83011261226157612260612145565b5b813561227184826020860161220a565b91505092915050565b6000806040838503121561229157612290611df0565b5b600061229f85828601611f91565b925050602083013567ffffffffffffffff8111156122c0576122bf611df5565b5b6122cc8582860161224c565b9150509250929050565b6122df81611e7f565b81146122ea57600080fd5b50565b6000813590506122fc816122d6565b92915050565b6000806040838503121561231957612318611df0565b5b600061232785828601612046565b9250506020612338858286016122ed565b9150509250929050565b600067ffffffffffffffff82111561235d5761235c61214f565b5b61236682611f04565b9050602081019050919050565b600061238661238184612342565b6121af565b9050828152602081018484840111156123a2576123a161214a565b5b6123ad8482856121fb565b509392505050565b600082601f8301126123ca576123c9612145565b5b81356123da848260208601612373565b91505092915050565b600080600080608085870312156123fd576123fc611df0565b5b600061240b87828801612046565b945050602061241c87828801612046565b935050604061242d87828801611f91565b925050606085013567ffffffffffffffff81111561244e5761244d611df5565b5b61245a878288016123b5565b91505092959194509250565b6000806040838503121561247d5761247c611df0565b5b600061248b85828601612046565b925050602061249c85828601612046565b9150509250929050565b7f4e487b7100000000000000000000000000000000000000000000000000000000600052602260045260246000fd5b600060028204905060018216806124ed57607f821691505b602082108103612500576124ff6124a6565b5b50919050565b7f4552433732313a20617070726f76616c20746f2063757272656e74206f776e6560008201527f7200000000000000000000000000000000000000000000000000000000000000602082015250565b6000612562602183611ec0565b915061256d82612506565b604082019050919050565b6000602082019050818103600083015261259181612555565b9050919050565b7f4552433732313a20617070726f76652063616c6c6572206973206e6f7420746f60008201527f6b656e206f776e6572206f7220617070726f76656420666f7220616c6c000000602082015250565b60006125f4603d83611ec0565b91506125ff82612598565b604082019050919050565b60006020820190508181036000830152612623816125e7565b9050919050565b7f4552433732313a2063616c6c6572206973206e6f7420746f6b656e206f776e6560008201527f72206f7220617070726f76656400000000000000000000000000000000000000602082015250565b6000612686602d83611ec0565b91506126918261262a565b604082019050919050565b600060208201905081810360008301526126b581612679565b9050919050565b7f4552433732313a20696e76616c696420746f6b656e2049440000000000000000600082015250565b60006126f2601883611ec0565b91506126fd826126bc565b602082019050919050565b60006020820190508181036000830152612721816126e5565b9050919050565b7f4552433732313a2061646472657373207a65726f206973206e6f74206120766160008201527f6c6964206f776e65720000000000000000000000000000000000000000000000602082015250565b6000612784602983611ec0565b915061278f82612728565b604082019050919050565b600060208201905081810360008301526127b381612777565b9050919050565b7f4e487b7100000000000000000000000000000000000000000000000000000000600052601160045260246000fd5b60006127f482611f70565b91506127ff83611f70565b9250817fffffffffffffffffffffffffffffffffffffffffffffffffffffffffffffffff0483118215151615612838576128376127ba565b5b828202905092915050565b600061284e82611f70565b915061285983611f70565b9250827fffffffffffffffffffffffffffffffffffffffffffffffffffffffffffffffff0382111561288e5761288d6127ba565b5b828201905092915050565b7f536f6c64206f7574000000000000000000000000000000000000000000000000600082015250565b60006128cf600883611ec0565b91506128da82612899565b602082019050919050565b600060208201905081810360008301526128fe816128c2565b9050919050565b7f456e6f7567682042616c616e6365000000000000000000000000000000000000600082015250565b600061293b600e83611ec0565b915061294682612905565b602082019050919050565b6000602082019050818103600083015261296a8161292e565b9050919050565b600061297c82611f70565b91507fffffffffffffffffffffffffffffffffffffffffffffffffffffffffffffffff82036129ae576129ad6127ba565b5b600182019050919050565b600081905092915050565b60006129cf82611eb5565b6129d981856129b9565b93506129e9818560208601611ed1565b80840191505092915050565b6000612a0182866129c4565b9150612a0d82856129c4565b9150612a1982846129c4565b9150819050949350505050565b7f4552433732313a207472616e736665722066726f6d20696e636f72726563742060008201527f6f776e6572000000000000000000000000000000000000000000000000000000602082015250565b6000612a82602583611ec0565b9150612a8d82612a26565b604082019050919050565b60006020820190508181036000830152612ab181612a75565b9050919050565b7f4552433732313a207472616e7366657220746f20746865207a65726f2061646460008201527f7265737300000000000000000000000000000000000000000000000000000000602082015250565b6000612b14602483611ec0565b9150612b1f82612ab8565b604082019050919050565b60006020820190508181036000830152612b4381612b07565b9050919050565b7f45524337323155524953746f726167653a2055524920736574206f66206e6f6e60008201527f6578697374656e7420746f6b656e000000000000000000000000000000000000602082015250565b6000612ba6602e83611ec0565b9150612bb182612b4a565b604082019050919050565b60006020820190508181036000830152612bd581612b99565b9050919050565b7f4552433732313a20617070726f766520746f2063616c6c657200000000000000600082015250565b6000612c12601983611ec0565b9150612c1d82612bdc565b602082019050919050565b60006020820190508181036000830152612c4181612c05565b9050919050565b7f4552433732313a207472616e7366657220746f206e6f6e20455243373231526560008201527f63656976657220696d706c656d656e7465720000000000000000000000000000602082015250565b6000612ca4603283611ec0565b9150612caf82612c48565b604082019050919050565b60006020820190508181036000830152612cd381612c97565b9050919050565b7f4e487b7100000000000000000000000000000000000000000000000000000000600052601260045260246000fd5b600081519050919050565b600082825260208201905092915050565b6000612d3082612d09565b612d3a8185612d14565b9350612d4a818560208601611ed1565b612d5381611f04565b840191505092915050565b6000608082019050612d736000830187612005565b612d806020830186612005565b612d8d604083018561209b565b8181036060830152612d9f8184612d25565b905095945050505050565b600081519050612db981611e26565b92915050565b600060208284031215612dd557612dd4611df0565b5b6000612de384828501612daa565b91505092915050565b7f4552433732313a206d696e7420746f20746865207a65726f2061646472657373600082015250565b6000612e22602083611ec0565b9150612e2d82612dec565b602082019050919050565b60006020820190508181036000830152612e5181612e15565b9050919050565b7f4552433732313a20746f6b656e20616c7265616479206d696e74656400000000600082015250565b6000612e8e601c83611ec0565b9150612e9982612e58565b602082019050919050565b60006020820190508181036000830152612ebd81612e81565b905091905056fea2646970667358221220a9da8ddb4bc85166616d2dc2bba9d85129a25126ac0b28abcf538cb130c2ab6564736f6c634300080d003368747470733a2f2f697066732e696f2f697066732f626166796265696874697878676b636536347667366665333276326b6e756d6f7072773234716a653534336d766f726f6972656e626a6e6a7278692f",
  "linkReferences": {},
  "deployedLinkReferences": {}
}