{
  "_format": "hh-sol-artifact-1",
  "contractName": "MyNFT",
  "sourceName": "contracts/nftMint.sol",
  "abi": [
    {
      "inputs": [],
      "stateMutability": "nonpayable",
      "type": "constructor"
    },
    {
      "anonymous": false,
      "inputs": [
        {
          "indexed": true,
          "internalType": "address",
          "name": "owner",
          "type": "address"
        },
        {
          "indexed": true,
          "internalType": "address",
          "name": "approved",
          "type": "address"
        },
        {
          "indexed": true,
          "internalType": "uint256",
          "name": "tokenId",
          "type": "uint256"
        }
      ],
      "name": "Approval",
      "type": "event"
    },
    {
      "anonymous": false,
      "inputs": [
        {
          "indexed": true,
          "internalType": "address",
          "name": "owner",
          "type": "address"
        },
        {
          "indexed": true,
          "internalType": "address",
          "name": "operator",
          "type": "address"
        },
        {
          "indexed": false,
          "internalType": "bool",
          "name": "approved",
          "type": "bool"
        }
      ],
      "name": "ApprovalForAll",
      "type": "event"
    },
    {
      "anonymous": false,
      "inputs": [
        {
          "indexed": false,
          "internalType": "uint256",
          "name": "_fromTokenId",
          "type": "uint256"
        },
        {
          "indexed": false,
          "internalType": "uint256",
          "name": "_toTokenId",
          "type": "uint256"
        }
      ],
      "name": "BatchMetadataUpdate",
      "type": "event"
    },
    {
      "anonymous": false,
      "inputs": [
        {
          "indexed": false,
          "internalType": "uint256",
          "name": "_tokenId",
          "type": "uint256"
        }
      ],
      "name": "MetadataUpdate",
      "type": "event"
    },
    {
      "anonymous": false,
      "inputs": [
        {
          "indexed": true,
          "internalType": "address",
          "name": "from",
          "type": "address"
        },
        {
          "indexed": true,
          "internalType": "address",
          "name": "to",
          "type": "address"
        },
        {
          "indexed": true,
          "internalType": "uint256",
          "name": "tokenId",
          "type": "uint256"
        }
      ],
      "name": "Transfer",
      "type": "event"
    },
    {
      "inputs": [
        {
          "internalType": "address",
          "name": "to",
          "type": "address"
        },
        {
          "internalType": "uint256",
          "name": "tokenId",
          "type": "uint256"
        }
      ],
      "name": "approve",
      "outputs": [],
      "stateMutability": "nonpayable",
      "type": "function"
    },
    {
      "inputs": [
        {
          "internalType": "address",
          "name": "owner",
          "type": "address"
        }
      ],
      "name": "balanceOf",
      "outputs": [
        {
          "internalType": "uint256",
          "name": "",
          "type": "uint256"
        }
      ],
      "stateMutability": "view",
      "type": "function"
    },
    {
      "inputs": [
        {
          "internalType": "uint256",
          "name": "tokenId",
          "type": "uint256"
        }
      ],
      "name": "getApproved",
      "outputs": [
        {
          "internalType": "address",
          "name": "",
          "type": "address"
        }
      ],
      "stateMutability": "view",
      "type": "function"
    },
    {
      "inputs": [],
      "name": "getBalance",
      "outputs": [
        {
          "internalType": "uint256",
          "name": "",
          "type": "uint256"
        }
      ],
      "stateMutability": "view",
      "type": "function"
    },
    {
      "inputs": [],
      "name": "id",
      "outputs": [
        {
          "internalType": "uint256",
          "name": "",
          "type": "uint256"
        }
      ],
      "stateMutability": "view",
      "type": "function"
    },
    {
      "inputs": [
        {
          "internalType": "address",
          "name": "owner",
          "type": "address"
        },
        {
          "internalType": "address",
          "name": "operator",
          "type": "address"
        }
      ],
      "name": "isApprovedForAll",
      "outputs": [
        {
          "internalType": "bool",
          "name": "",
          "type": "bool"
        }
      ],
      "stateMutability": "view",
      "type": "function"
    },
    {
      "inputs": [
        {
          "internalType": "uint256",
          "name": "amount",
          "type": "uint256"
        },
        {
          "internalType": "string",
          "name": "uri",
          "type": "string"
        }
      ],
      "name": "mint",
      "outputs": [],
      "stateMutability": "payable",
      "type": "function"
    },
    {
      "inputs": [],
      "name": "name",
      "outputs": [
        {
          "internalType": "string",
          "name": "",
          "type": "string"
        }
      ],
      "stateMutability": "view",
      "type": "function"
    },
    {
      "inputs": [],
      "name": "owner",
      "outputs": [
        {
          "internalType": "address",
          "name": "",
          "type": "address"
        }
      ],
      "stateMutability": "view",
      "type": "function"
    },
    {
      "inputs": [
        {
          "internalType": "uint256",
          "name": "tokenId",
          "type": "uint256"
        }
      ],
      "name": "ownerOf",
      "outputs": [
        {
          "internalType": "address",
          "name": "",
          "type": "address"
        }
      ],
      "stateMutability": "view",
      "type": "function"
    },
    {
      "inputs": [],
      "name": "price",
      "outputs": [
        {
          "internalType": "uint256",
          "name": "",
          "type": "uint256"
        }
      ],
      "stateMutability": "view",
      "type": "function"
    },
    {
      "inputs": [
        {
          "internalType": "address",
          "name": "from",
          "type": "address"
        },
        {
          "internalType": "address",
          "name": "to",
          "type": "address"
        },
        {
          "internalType": "uint256",
          "name": "tokenId",
          "type": "uint256"
        }
      ],
      "name": "safeTransferFrom",
      "outputs": [],
      "stateMutability": "nonpayable",
      "type": "function"
    },
    {
      "inputs": [
        {
          "internalType": "address",
          "name": "from",
          "type": "address"
        },
        {
          "internalType": "address",
          "name": "to",
          "type": "address"
        },
        {
          "internalType": "uint256",
          "name": "tokenId",
          "type": "uint256"
        },
        {
          "internalType": "bytes",
          "name": "data",
          "type": "bytes"
        }
      ],
      "name": "safeTransferFrom",
      "outputs": [],
      "stateMutability": "nonpayable",
      "type": "function"
    },
    {
      "inputs": [
        {
          "internalType": "address",
          "name": "operator",
          "type": "address"
        },
        {
          "internalType": "bool",
          "name": "approved",
          "type": "bool"
        }
      ],
      "name": "setApprovalForAll",
      "outputs": [],
      "stateMutability": "nonpayable",
      "type": "function"
    },
    {
      "inputs": [],
      "name": "supplyNFT",
      "outputs": [
        {
          "internalType": "uint256",
          "name": "",
          "type": "uint256"
        }
      ],
      "stateMutability": "view",
      "type": "function"
    },
    {
      "inputs": [],
      "name": "supplyTotal",
      "outputs": [
        {
          "internalType": "uint256",
          "name": "",
          "type": "uint256"
        }
      ],
      "stateMutability": "view",
      "type": "function"
    },
    {
      "inputs": [
        {
          "internalType": "bytes4",
          "name": "interfaceId",
          "type": "bytes4"
        }
      ],
      "name": "supportsInterface",
      "outputs": [
        {
          "internalType": "bool",
          "name": "",
          "type": "bool"
        }
      ],
      "stateMutability": "view",
      "type": "function"
    },
    {
      "inputs": [],
      "name": "symbol",
      "outputs": [
        {
          "internalType": "string",
          "name": "",
          "type": "string"
        }
      ],
      "stateMutability": "view",
      "type": "function"
    },
    {
      "inputs": [
        {
          "internalType": "uint256",
          "name": "tokenId",
          "type": "uint256"
        }
      ],
      "name": "tokenURI",
      "outputs": [
        {
          "internalType": "string",
          "name": "",
          "type": "string"
        }
      ],
      "stateMutability": "view",
      "type": "function"
    },
    {
      "inputs": [
        {
          "internalType": "address",
          "name": "from",
          "type": "address"
        },
        {
          "internalType": "address",
          "name": "to",
          "type": "address"
        },
        {
          "internalType": "uint256",
          "name": "tokenId",
          "type": "uint256"
        }
      ],
      "name": "transferFrom",
      "outputs": [],
      "stateMutability": "nonpayable",
      "type": "function"
    },
    {
      "inputs": [],
      "name": "withdraw",
      "outputs": [],
      "stateMutability": "nonpayable",
      "type": "function"
    }
  ],
  "bytecode": "0x60806040526004600a5566038d7ea4c68000600b553480156200002157600080fd5b506040518060400160405280600781526020017f6e6f6f624e4654000000000000000000000000000000000000000000000000008152506040518060400160405280600381526020017f4e4f4200000000000000000000000000000000000000000000000000000000008152508160009080519060200190620000a692919062000109565b508060019080519060200190620000bf92919062000109565b50505033600860006101000a81548173ffffffffffffffffffffffffffffffffffffffff021916908373ffffffffffffffffffffffffffffffffffffffff1602179055506200021d565b8280546200011790620001e8565b90600052602060002090601f0160209004810192826200013b576000855562000187565b82601f106200015657805160ff191683800117855562000187565b8280016001018555821562000187579182015b828111156200018657825182559160200191906001019062000169565b5b5090506200019691906200019a565b5090565b5b80821115620001b55760008160009055506001016200019b565b5090565b7f4e487b7100000000000000000000000000000000000000000000000000000000600052602260045260246000fd5b600060028204905060018216806200020157607f821691505b602082108103620002175762000216620001b9565b5b50919050565b612f44806200022d6000396000f3fe60806040526004361061012a5760003560e01c806370a08231116100ab578063a22cb4651161006f578063a22cb465146103d3578063af640d0f146103fc578063b88d4fde14610427578063c87b56dd14610450578063e651e04c1461048d578063e985e9c5146104b85761012a565b806370a08231146102f957806377097fc8146103365780638da5cb5b1461035257806395d89b411461037d578063a035b1fe146103a85761012a565b806323b872dd116100f257806323b872dd146102285780633ccfd60b1461025157806342842e0e146102685780634c73501a146102915780636352211e146102bc5761012a565b806301ffc9a71461012f57806306fdde031461016c578063081812fc14610197578063095ea7b3146101d457806312065fe0146101fd575b600080fd5b34801561013b57600080fd5b5061015660048036038101906101519190611ea9565b6104f5565b6040516101639190611ef1565b60405180910390f35b34801561017857600080fd5b50610181610556565b60405161018e9190611fa5565b60405180910390f35b3480156101a357600080fd5b506101be60048036038101906101b99190611ffd565b6105e8565b6040516101cb919061206b565b60405180910390f35b3480156101e057600080fd5b506101fb60048036038101906101f691906120b2565b61062e565b005b34801561020957600080fd5b50610212610745565b60405161021f9190612101565b60405180910390f35b34801561023457600080fd5b5061024f600480360381019061024a919061211c565b61074d565b005b34801561025d57600080fd5b506102666107ad565b005b34801561027457600080fd5b5061028f600480360381019061028a919061211c565b610850565b005b34801561029d57600080fd5b506102a6610870565b6040516102b39190612101565b60405180910390f35b3480156102c857600080fd5b506102e360048036038101906102de9190611ffd565b610876565b6040516102f0919061206b565b60405180910390f35b34801561030557600080fd5b50610320600480360381019061031b919061216f565b6108fc565b60405161032d9190612101565b60405180910390f35b610350600480360381019061034b91906122d1565b6109b3565b005b34801561035e57600080fd5b50610367610ac7565b604051610374919061206b565b60405180910390f35b34801561038957600080fd5b50610392610aed565b60405161039f9190611fa5565b60405180910390f35b3480156103b457600080fd5b506103bd610b7f565b6040516103ca9190612101565b60405180910390f35b3480156103df57600080fd5b506103fa60048036038101906103f59190612359565b610b85565b005b34801561040857600080fd5b50610411610b9b565b60405161041e9190612101565b60405180910390f35b34801561043357600080fd5b5061044e6004803603810190610449919061243a565b610ba1565b005b34801561045c57600080fd5b5061047760048036038101906104729190611ffd565b610c03565b6040516104849190611fa5565b60405180910390f35b34801561049957600080fd5b506104a2610d15565b6040516104af9190612101565b60405180910390f35b3480156104c457600080fd5b506104df60048036038101906104da91906124bd565b610d1f565b6040516104ec9190611ef1565b60405180910390f35b6000634906490660e01b7bffffffffffffffffffffffffffffffffffffffffffffffffffffffff1916827bffffffffffffffffffffffffffffffffffffffffffffffffffffffff1916148061054f575061054e82610db3565b5b9050919050565b6060600080546105659061252c565b80601f01602080910402602001604051908101604052809291908181526020018280546105919061252c565b80156105de5780601f106105b3576101008083540402835291602001916105de565b820191906000526020600020905b8154815290600101906020018083116105c157829003601f168201915b5050505050905090565b60006105f382610e95565b6004600083815260200190815260200160002060009054906101000a900473ffffffffffffffffffffffffffffffffffffffff169050919050565b600061063982610876565b90508073ffffffffffffffffffffffffffffffffffffffff168373ffffffffffffffffffffffffffffffffffffffff16036106a9576040517f08c379a00000000000000000000000000000000000000000000000000000000081526004016106a0906125cf565b60405180910390fd5b8073ffffffffffffffffffffffffffffffffffffffff166106c8610ee0565b73ffffffffffffffffffffffffffffffffffffffff1614806106f757506106f6816106f1610ee0565b610d1f565b5b610736576040517f08c379a000000000000000000000000000000000000000000000000000000000815260040161072d90612661565b60405180910390fd5b6107408383610ee8565b505050565b600047905090565b61075e610758610ee0565b82610fa1565b61079d576040517f08c379a0000000000000000000000000000000000000000000000000000000008152600401610794906126f3565b60405180910390fd5b6107a8838383611036565b505050565b600860009054906101000a900473ffffffffffffffffffffffffffffffffffffffff1673ffffffffffffffffffffffffffffffffffffffff163373ffffffffffffffffffffffffffffffffffffffff161461080757600080fd5b3373ffffffffffffffffffffffffffffffffffffffff166108fc479081150290604051600060405180830381858888f1935050505015801561084d573d6000803e3d6000fd5b50565b61086b83838360405180602001604052806000815250610ba1565b505050565b600a5481565b6000806108828361132f565b9050600073ffffffffffffffffffffffffffffffffffffffff168173ffffffffffffffffffffffffffffffffffffffff16036108f3576040517f08c379a00000000000000000000000000000000000000000000000000000000081526004016108ea9061275f565b60405180910390fd5b80915050919050565b60008073ffffffffffffffffffffffffffffffffffffffff168273ffffffffffffffffffffffffffffffffffffffff160361096c576040517f08c379a0000000000000000000000000000000000000000000000000000000008152600401610963906127f1565b60405180910390fd5b600360008373ffffffffffffffffffffffffffffffffffffffff1673ffffffffffffffffffffffffffffffffffffffff168152602001908152602001600020549050919050565b600b54826109c19190612840565b600981905550600a54600754836109d8919061289a565b1115610a19576040517f08c379a0000000000000000000000000000000000000000000000000000000008152600401610a109061293c565b60405180910390fd5b6009543414610a5d576040517f08c379a0000000000000000000000000000000000000000000000000000000008152600401610a54906129a8565b60405180910390fd5b60005b82811015610ac257600160076000828254610a7b919061289a565b925050819055506000610a8e600c61136c565b9050610a9a600c61137a565b610aa43382611390565b610aae81846113ae565b508080610aba906129c8565b915050610a60565b505050565b600860009054906101000a900473ffffffffffffffffffffffffffffffffffffffff1681565b606060018054610afc9061252c565b80601f0160208091040260200160405190810160405280929190818152602001828054610b289061252c565b8015610b755780601f10610b4a57610100808354040283529160200191610b75565b820191906000526020600020905b815481529060010190602001808311610b5857829003601f168201915b5050505050905090565b600b5481565b610b97610b90610ee0565b8383611459565b5050565b60075481565b610bb2610bac610ee0565b83610fa1565b610bf1576040517f08c379a0000000000000000000000000000000000000000000000000000000008152600401610be8906126f3565b60405180910390fd5b610bfd848484846115c5565b50505050565b6060610c0e82610e95565b6000600660008481526020019081526020016000208054610c2e9061252c565b80601f0160208091040260200160405190810160405280929190818152602001828054610c5a9061252c565b8015610ca75780601f10610c7c57610100808354040283529160200191610ca7565b820191906000526020600020905b815481529060010190602001808311610c8a57829003601f168201915b505050505090506000610cb8611621565b90506000815103610ccd578192505050610d10565b600082511115610d02578082604051602001610cea929190612a4c565b60405160208183030381529060405292505050610d10565b610d0b84611638565b925050505b919050565b6000600754905090565b6000600560008473ffffffffffffffffffffffffffffffffffffffff1673ffffffffffffffffffffffffffffffffffffffff16815260200190815260200160002060008373ffffffffffffffffffffffffffffffffffffffff1673ffffffffffffffffffffffffffffffffffffffff16815260200190815260200160002060009054906101000a900460ff16905092915050565b60007f80ac58cd000000000000000000000000000000000000000000000000000000007bffffffffffffffffffffffffffffffffffffffffffffffffffffffff1916827bffffffffffffffffffffffffffffffffffffffffffffffffffffffff19161480610e7e57507f5b5e139f000000000000000000000000000000000000000000000000000000007bffffffffffffffffffffffffffffffffffffffffffffffffffffffff1916827bffffffffffffffffffffffffffffffffffffffffffffffffffffffff1916145b80610e8e5750610e8d826116a0565b5b9050919050565b610e9e8161170a565b610edd576040517f08c379a0000000000000000000000000000000000000000000000000000000008152600401610ed49061275f565b60405180910390fd5b50565b600033905090565b816004600083815260200190815260200160002060006101000a81548173ffffffffffffffffffffffffffffffffffffffff021916908373ffffffffffffffffffffffffffffffffffffffff160217905550808273ffffffffffffffffffffffffffffffffffffffff16610f5b83610876565b73ffffffffffffffffffffffffffffffffffffffff167f8c5be1e5ebec7d5bd14f71427d1e84f3dd0314c0f7b2291e5b200ac8c7c3b92560405160405180910390a45050565b600080610fad83610876565b90508073ffffffffffffffffffffffffffffffffffffffff168473ffffffffffffffffffffffffffffffffffffffff161480610fef5750610fee8185610d1f565b5b8061102d57508373ffffffffffffffffffffffffffffffffffffffff16611015846105e8565b73ffffffffffffffffffffffffffffffffffffffff16145b91505092915050565b8273ffffffffffffffffffffffffffffffffffffffff1661105682610876565b73ffffffffffffffffffffffffffffffffffffffff16146110ac576040517f08c379a00000000000000000000000000000000000000000000000000000000081526004016110a390612ae2565b60405180910390fd5b600073ffffffffffffffffffffffffffffffffffffffff168273ffffffffffffffffffffffffffffffffffffffff160361111b576040517f08c379a000000000000000000000000000000000000000000000000000000000815260040161111290612b74565b60405180910390fd5b611128838383600161174b565b8273ffffffffffffffffffffffffffffffffffffffff1661114882610876565b73ffffffffffffffffffffffffffffffffffffffff161461119e576040517f08c379a000000000000000000000000000000000000000000000000000000000815260040161119590612ae2565b60405180910390fd5b6004600082815260200190815260200160002060006101000a81549073ffffffffffffffffffffffffffffffffffffffff02191690556001600360008573ffffffffffffffffffffffffffffffffffffffff1673ffffffffffffffffffffffffffffffffffffffff168152602001908152602001600020600082825403925050819055506001600360008473ffffffffffffffffffffffffffffffffffffffff1673ffffffffffffffffffffffffffffffffffffffff16815260200190815260200160002060008282540192505081905550816002600083815260200190815260200160002060006101000a81548173ffffffffffffffffffffffffffffffffffffffff021916908373ffffffffffffffffffffffffffffffffffffffff160217905550808273ffffffffffffffffffffffffffffffffffffffff168473ffffffffffffffffffffffffffffffffffffffff167fddf252ad1be2c89b69c2b068fc378daa952ba7f163c4a11628f55a4df523b3ef60405160405180910390a461132a8383836001611751565b505050565b60006002600083815260200190815260200160002060009054906101000a900473ffffffffffffffffffffffffffffffffffffffff169050919050565b600081600001549050919050565b6001816000016000828254019250508190555050565b6113aa828260405180602001604052806000815250611757565b5050565b6113b78261170a565b6113f6576040517f08c379a00000000000000000000000000000000000000000000000000000000081526004016113ed90612c06565b60405180910390fd5b8060066000848152602001908152602001600020908051906020019061141d929190611d9a565b507ff8e1a15aba9398e019f0b49df1a4fde98ee17ae345cb5f6b5e2c27f5033e8ce78260405161144d9190612101565b60405180910390a15050565b8173ffffffffffffffffffffffffffffffffffffffff168373ffffffffffffffffffffffffffffffffffffffff16036114c7576040517f08c379a00000000000000000000000000000000000000000000000000000000081526004016114be90612c72565b60405180910390fd5b80600560008573ffffffffffffffffffffffffffffffffffffffff1673ffffffffffffffffffffffffffffffffffffffff16815260200190815260200160002060008473ffffffffffffffffffffffffffffffffffffffff1673ffffffffffffffffffffffffffffffffffffffff16815260200190815260200160002060006101000a81548160ff0219169083151502179055508173ffffffffffffffffffffffffffffffffffffffff168373ffffffffffffffffffffffffffffffffffffffff167f17307eab39ab6107e8899845ad3d59bd9653f200f220920489ca2b5937696c31836040516115b89190611ef1565b60405180910390a3505050565b6115d0848484611036565b6115dc848484846117b2565b61161b576040517f08c379a000000000000000000000000000000000000000000000000000000000815260040161161290612d04565b60405180910390fd5b50505050565b606060405180602001604052806000815250905090565b606061164382610e95565b600061164d611621565b9050600081511161166d5760405180602001604052806000815250611698565b8061167784611939565b604051602001611688929190612a4c565b6040516020818303038152906040525b915050919050565b60007f01ffc9a7000000000000000000000000000000000000000000000000000000007bffffffffffffffffffffffffffffffffffffffffffffffffffffffff1916827bffffffffffffffffffffffffffffffffffffffffffffffffffffffff1916149050919050565b60008073ffffffffffffffffffffffffffffffffffffffff1661172c8361132f565b73ffffffffffffffffffffffffffffffffffffffff1614159050919050565b50505050565b50505050565b6117618383611a07565b61176e60008484846117b2565b6117ad576040517f08c379a00000000000000000000000000000000000000000000000000000000081526004016117a490612d04565b60405180910390fd5b505050565b60006117d38473ffffffffffffffffffffffffffffffffffffffff16611c24565b1561192c578373ffffffffffffffffffffffffffffffffffffffff1663150b7a026117fc610ee0565b8786866040518563ffffffff1660e01b815260040161181e9493929190612d79565b6020604051808303816000875af192505050801561185a57506040513d601f19601f820116820180604052508101906118579190612dda565b60015b6118dc573d806000811461188a576040519150601f19603f3d011682016040523d82523d6000602084013e61188f565b606091505b5060008151036118d4576040517f08c379a00000000000000000000000000000000000000000000000000000000081526004016118cb90612d04565b60405180910390fd5b805181602001fd5b63150b7a0260e01b7bffffffffffffffffffffffffffffffffffffffffffffffffffffffff1916817bffffffffffffffffffffffffffffffffffffffffffffffffffffffff191614915050611931565b600190505b949350505050565b60606000600161194884611c47565b01905060008167ffffffffffffffff811115611967576119666121a6565b5b6040519080825280601f01601f1916602001820160405280156119995781602001600182028036833780820191505090505b509050600082602001820190505b6001156119fc578080600190039150507f3031323334353637383961626364656600000000000000000000000000000000600a86061a8153600a85816119f0576119ef612e07565b5b049450600085036119a7575b819350505050919050565b600073ffffffffffffffffffffffffffffffffffffffff168273ffffffffffffffffffffffffffffffffffffffff1603611a76576040517f08c379a0000000000000000000000000000000000000000000000000000000008152600401611a6d90612e82565b60405180910390fd5b611a7f8161170a565b15611abf576040517f08c379a0000000000000000000000000000000000000000000000000000000008152600401611ab690612eee565b60405180910390fd5b611acd60008383600161174b565b611ad68161170a565b15611b16576040517f08c379a0000000000000000000000000000000000000000000000000000000008152600401611b0d90612eee565b60405180910390fd5b6001600360008473ffffffffffffffffffffffffffffffffffffffff1673ffffffffffffffffffffffffffffffffffffffff16815260200190815260200160002060008282540192505081905550816002600083815260200190815260200160002060006101000a81548173ffffffffffffffffffffffffffffffffffffffff021916908373ffffffffffffffffffffffffffffffffffffffff160217905550808273ffffffffffffffffffffffffffffffffffffffff16600073ffffffffffffffffffffffffffffffffffffffff167fddf252ad1be2c89b69c2b068fc378daa952ba7f163c4a11628f55a4df523b3ef60405160405180910390a4611c20600083836001611751565b5050565b6000808273ffffffffffffffffffffffffffffffffffffffff163b119050919050565b600080600090507a184f03e93ff9f4daa797ed6e38ed64bf6a1f0100000000000000008310611ca5577a184f03e93ff9f4daa797ed6e38ed64bf6a1f0100000000000000008381611c9b57611c9a612e07565b5b0492506040810190505b6d04ee2d6d415b85acef81000000008310611ce2576d04ee2d6d415b85acef81000000008381611cd857611cd7612e07565b5b0492506020810190505b662386f26fc100008310611d1157662386f26fc100008381611d0757611d06612e07565b5b0492506010810190505b6305f5e1008310611d3a576305f5e1008381611d3057611d2f612e07565b5b0492506008810190505b6127108310611d5f576127108381611d5557611d54612e07565b5b0492506004810190505b60648310611d825760648381611d7857611d77612e07565b5b0492506002810190505b600a8310611d91576001810190505b80915050919050565b828054611da69061252c565b90600052602060002090601f016020900481019282611dc85760008555611e0f565b82601f10611de157805160ff1916838001178555611e0f565b82800160010185558215611e0f579182015b82811115611e0e578251825591602001919060010190611df3565b5b509050611e1c9190611e20565b5090565b5b80821115611e39576000816000905550600101611e21565b5090565b6000604051905090565b600080fd5b600080fd5b60007fffffffff0000000000000000000000000000000000000000000000000000000082169050919050565b611e8681611e51565b8114611e9157600080fd5b50565b600081359050611ea381611e7d565b92915050565b600060208284031215611ebf57611ebe611e47565b5b6000611ecd84828501611e94565b91505092915050565b60008115159050919050565b611eeb81611ed6565b82525050565b6000602082019050611f066000830184611ee2565b92915050565b600081519050919050565b600082825260208201905092915050565b60005b83811015611f46578082015181840152602081019050611f2b565b83811115611f55576000848401525b50505050565b6000601f19601f8301169050919050565b6000611f7782611f0c565b611f818185611f17565b9350611f91818560208601611f28565b611f9a81611f5b565b840191505092915050565b60006020820190508181036000830152611fbf8184611f6c565b905092915050565b6000819050919050565b611fda81611fc7565b8114611fe557600080fd5b50565b600081359050611ff781611fd1565b92915050565b60006020828403121561201357612012611e47565b5b600061202184828501611fe8565b91505092915050565b600073ffffffffffffffffffffffffffffffffffffffff82169050919050565b60006120558261202a565b9050919050565b6120658161204a565b82525050565b6000602082019050612080600083018461205c565b92915050565b61208f8161204a565b811461209a57600080fd5b50565b6000813590506120ac81612086565b92915050565b600080604083850312156120c9576120c8611e47565b5b60006120d78582860161209d565b92505060206120e885828601611fe8565b9150509250929050565b6120fb81611fc7565b82525050565b600060208201905061211660008301846120f2565b92915050565b60008060006060848603121561213557612134611e47565b5b60006121438682870161209d565b93505060206121548682870161209d565b925050604061216586828701611fe8565b9150509250925092565b60006020828403121561218557612184611e47565b5b60006121938482850161209d565b91505092915050565b600080fd5b600080fd5b7f4e487b7100000000000000000000000000000000000000000000000000000000600052604160045260246000fd5b6121de82611f5b565b810181811067ffffffffffffffff821117156121fd576121fc6121a6565b5b80604052505050565b6000612210611e3d565b905061221c82826121d5565b919050565b600067ffffffffffffffff82111561223c5761223b6121a6565b5b61224582611f5b565b9050602081019050919050565b82818337600083830152505050565b600061227461226f84612221565b612206565b9050828152602081018484840111156122905761228f6121a1565b5b61229b848285612252565b509392505050565b600082601f8301126122b8576122b761219c565b5b81356122c8848260208601612261565b91505092915050565b600080604083850312156122e8576122e7611e47565b5b60006122f685828601611fe8565b925050602083013567ffffffffffffffff81111561231757612316611e4c565b5b612323858286016122a3565b9150509250929050565b61233681611ed6565b811461234157600080fd5b50565b6000813590506123538161232d565b92915050565b600080604083850312156123705761236f611e47565b5b600061237e8582860161209d565b925050602061238f85828601612344565b9150509250929050565b600067ffffffffffffffff8211156123b4576123b36121a6565b5b6123bd82611f5b565b9050602081019050919050565b60006123dd6123d884612399565b612206565b9050828152602081018484840111156123f9576123f86121a1565b5b612404848285612252565b509392505050565b600082601f8301126124215761242061219c565b5b81356124318482602086016123ca565b91505092915050565b6000806000806080858703121561245457612453611e47565b5b60006124628782880161209d565b94505060206124738782880161209d565b935050604061248487828801611fe8565b925050606085013567ffffffffffffffff8111156124a5576124a4611e4c565b5b6124b18782880161240c565b91505092959194509250565b600080604083850312156124d4576124d3611e47565b5b60006124e28582860161209d565b92505060206124f38582860161209d565b9150509250929050565b7f4e487b7100000000000000000000000000000000000000000000000000000000600052602260045260246000fd5b6000600282049050600182168061254457607f821691505b602082108103612557576125566124fd565b5b50919050565b7f4552433732313a20617070726f76616c20746f2063757272656e74206f776e6560008201527f7200000000000000000000000000000000000000000000000000000000000000602082015250565b60006125b9602183611f17565b91506125c48261255d565b604082019050919050565b600060208201905081810360008301526125e8816125ac565b9050919050565b7f4552433732313a20617070726f76652063616c6c6572206973206e6f7420746f60008201527f6b656e206f776e6572206f7220617070726f76656420666f7220616c6c000000602082015250565b600061264b603d83611f17565b9150612656826125ef565b604082019050919050565b6000602082019050818103600083015261267a8161263e565b9050919050565b7f4552433732313a2063616c6c6572206973206e6f7420746f6b656e206f776e6560008201527f72206f7220617070726f76656400000000000000000000000000000000000000602082015250565b60006126dd602d83611f17565b91506126e882612681565b604082019050919050565b6000602082019050818103600083015261270c816126d0565b9050919050565b7f4552433732313a20696e76616c696420746f6b656e2049440000000000000000600082015250565b6000612749601883611f17565b915061275482612713565b602082019050919050565b600060208201905081810360008301526127788161273c565b9050919050565b7f4552433732313a2061646472657373207a65726f206973206e6f74206120766160008201527f6c6964206f776e65720000000000000000000000000000000000000000000000602082015250565b60006127db602983611f17565b91506127e68261277f565b604082019050919050565b6000602082019050818103600083015261280a816127ce565b9050919050565b7f4e487b7100000000000000000000000000000000000000000000000000000000600052601160045260246000fd5b600061284b82611fc7565b915061285683611fc7565b9250817fffffffffffffffffffffffffffffffffffffffffffffffffffffffffffffffff048311821515161561288f5761288e612811565b5b828202905092915050565b60006128a582611fc7565b91506128b083611fc7565b9250827fffffffffffffffffffffffffffffffffffffffffffffffffffffffffffffffff038211156128e5576128e4612811565b5b828201905092915050565b7f536f6c64206f7574000000000000000000000000000000000000000000000000600082015250565b6000612926600883611f17565b9150612931826128f0565b602082019050919050565b6000602082019050818103600083015261295581612919565b9050919050565b7f456e6f7567682042616c616e6365000000000000000000000000000000000000600082015250565b6000612992600e83611f17565b915061299d8261295c565b602082019050919050565b600060208201905081810360008301526129c181612985565b9050919050565b60006129d382611fc7565b91507fffffffffffffffffffffffffffffffffffffffffffffffffffffffffffffffff8203612a0557612a04612811565b5b600182019050919050565b600081905092915050565b6000612a2682611f0c565b612a308185612a10565b9350612a40818560208601611f28565b80840191505092915050565b6000612a588285612a1b565b9150612a648284612a1b565b91508190509392505050565b7f4552433732313a207472616e736665722066726f6d20696e636f72726563742060008201527f6f776e6572000000000000000000000000000000000000000000000000000000602082015250565b6000612acc602583611f17565b9150612ad782612a70565b604082019050919050565b60006020820190508181036000830152612afb81612abf565b9050919050565b7f4552433732313a207472616e7366657220746f20746865207a65726f2061646460008201527f7265737300000000000000000000000000000000000000000000000000000000602082015250565b6000612b5e602483611f17565b9150612b6982612b02565b604082019050919050565b60006020820190508181036000830152612b8d81612b51565b9050919050565b7f45524337323155524953746f726167653a2055524920736574206f66206e6f6e60008201527f6578697374656e7420746f6b656e000000000000000000000000000000000000602082015250565b6000612bf0602e83611f17565b9150612bfb82612b94565b604082019050919050565b60006020820190508181036000830152612c1f81612be3565b9050919050565b7f4552433732313a20617070726f766520746f2063616c6c657200000000000000600082015250565b6000612c5c601983611f17565b9150612c6782612c26565b602082019050919050565b60006020820190508181036000830152612c8b81612c4f565b9050919050565b7f4552433732313a207472616e7366657220746f206e6f6e20455243373231526560008201527f63656976657220696d706c656d656e7465720000000000000000000000000000602082015250565b6000612cee603283611f17565b9150612cf982612c92565b604082019050919050565b60006020820190508181036000830152612d1d81612ce1565b9050919050565b600081519050919050565b600082825260208201905092915050565b6000612d4b82612d24565b612d558185612d2f565b9350612d65818560208601611f28565b612d6e81611f5b565b840191505092915050565b6000608082019050612d8e600083018761205c565b612d9b602083018661205c565b612da860408301856120f2565b8181036060830152612dba8184612d40565b905095945050505050565b600081519050612dd481611e7d565b92915050565b600060208284031215612df057612def611e47565b5b6000612dfe84828501612dc5565b91505092915050565b7f4e487b7100000000000000000000000000000000000000000000000000000000600052601260045260246000fd5b7f4552433732313a206d696e7420746f20746865207a65726f2061646472657373600082015250565b6000612e6c602083611f17565b9150612e7782612e36565b602082019050919050565b60006020820190508181036000830152612e9b81612e5f565b9050919050565b7f4552433732313a20746f6b656e20616c7265616479206d696e74656400000000600082015250565b6000612ed8601c83611f17565b9150612ee382612ea2565b602082019050919050565b60006020820190508181036000830152612f0781612ecb565b905091905056fea2646970667358221220aac1deef91c065c4cba62eaa23c7595470a8454b0c1dcf2b93bfab41fd43735564736f6c634300080d0033",
  "linkReferences": {},
  "deployedLinkReferences": {}
}