{
    "_format": "hh-sol-artifact-1",
    "contractName": "MyNFT",
    "sourceName": "contracts/nftMint.sol",
    "abi": [
        {
            "inputs": [],
            "stateMutability": "nonpayable",
            "type": "constructor"
        },
        {
            "anonymous": false,
            "inputs": [
                {
                    "indexed": true,
                    "internalType": "address",
                    "name": "owner",
                    "type": "address"
                },
                {
                    "indexed": true,
                    "internalType": "address",
                    "name": "approved",
                    "type": "address"
                },
                {
                    "indexed": true,
                    "internalType": "uint256",
                    "name": "tokenId",
                    "type": "uint256"
                }
            ],
            "name": "Approval",
            "type": "event"
        },
        {
            "anonymous": false,
            "inputs": [
                {
                    "indexed": true,
                    "internalType": "address",
                    "name": "owner",
                    "type": "address"
                },
                {
                    "indexed": true,
                    "internalType": "address",
                    "name": "operator",
                    "type": "address"
                },
                {
                    "indexed": false,
                    "internalType": "bool",
                    "name": "approved",
                    "type": "bool"
                }
            ],
            "name": "ApprovalForAll",
            "type": "event"
        },
        {
            "anonymous": false,
            "inputs": [
                {
                    "indexed": true,
                    "internalType": "address",
                    "name": "from",
                    "type": "address"
                },
                {
                    "indexed": true,
                    "internalType": "address",
                    "name": "to",
                    "type": "address"
                },
                {
                    "indexed": true,
                    "internalType": "uint256",
                    "name": "tokenId",
                    "type": "uint256"
                }
            ],
            "name": "Transfer",
            "type": "event"
        },
        {
            "inputs": [
                {
                    "internalType": "address",
                    "name": "to",
                    "type": "address"
                },
                {
                    "internalType": "uint256",
                    "name": "tokenId",
                    "type": "uint256"
                }
            ],
            "name": "approve",
            "outputs": [],
            "stateMutability": "nonpayable",
            "type": "function"
        },
        {
            "inputs": [
                {
                    "internalType": "address",
                    "name": "owner",
                    "type": "address"
                }
            ],
            "name": "balanceOf",
            "outputs": [
                {
                    "internalType": "uint256",
                    "name": "",
                    "type": "uint256"
                }
            ],
            "stateMutability": "view",
            "type": "function"
        },
        {
            "inputs": [
                {
                    "internalType": "uint256",
                    "name": "tokenId",
                    "type": "uint256"
                }
            ],
            "name": "getApproved",
            "outputs": [
                {
                    "internalType": "address",
                    "name": "",
                    "type": "address"
                }
            ],
            "stateMutability": "view",
            "type": "function"
        },
        {
            "inputs": [],
            "name": "getBalance",
            "outputs": [
                {
                    "internalType": "uint256",
                    "name": "",
                    "type": "uint256"
                }
            ],
            "stateMutability": "view",
            "type": "function"
        },
        {
            "inputs": [],
            "name": "id",
            "outputs": [
                {
                    "internalType": "uint256",
                    "name": "",
                    "type": "uint256"
                }
            ],
            "stateMutability": "view",
            "type": "function"
        },
        {
            "inputs": [
                {
                    "internalType": "address",
                    "name": "owner",
                    "type": "address"
                },
                {
                    "internalType": "address",
                    "name": "operator",
                    "type": "address"
                }
            ],
            "name": "isApprovedForAll",
            "outputs": [
                {
                    "internalType": "bool",
                    "name": "",
                    "type": "bool"
                }
            ],
            "stateMutability": "view",
            "type": "function"
        },
        {
            "inputs": [
                {
                    "internalType": "address",
                    "name": "buyer",
                    "type": "address"
                },
                {
                    "internalType": "uint256",
                    "name": "amount",
                    "type": "uint256"
                }
            ],
            "name": "mint",
            "outputs": [],
            "stateMutability": "payable",
            "type": "function"
        },
        {
            "inputs": [],
            "name": "name",
            "outputs": [
                {
                    "internalType": "string",
                    "name": "",
                    "type": "string"
                }
            ],
            "stateMutability": "view",
            "type": "function"
        },
        {
            "inputs": [],
            "name": "owner",
            "outputs": [
                {
                    "internalType": "address",
                    "name": "",
                    "type": "address"
                }
            ],
            "stateMutability": "view",
            "type": "function"
        },
        {
            "inputs": [
                {
                    "internalType": "uint256",
                    "name": "tokenId",
                    "type": "uint256"
                }
            ],
            "name": "ownerOf",
            "outputs": [
                {
                    "internalType": "address",
                    "name": "",
                    "type": "address"
                }
            ],
            "stateMutability": "view",
            "type": "function"
        },
        {
            "inputs": [],
            "name": "price",
            "outputs": [
                {
                    "internalType": "uint256",
                    "name": "",
                    "type": "uint256"
                }
            ],
            "stateMutability": "view",
            "type": "function"
        },
        {
            "inputs": [
                {
                    "internalType": "address",
                    "name": "from",
                    "type": "address"
                },
                {
                    "internalType": "address",
                    "name": "to",
                    "type": "address"
                },
                {
                    "internalType": "uint256",
                    "name": "tokenId",
                    "type": "uint256"
                }
            ],
            "name": "safeTransferFrom",
            "outputs": [],
            "stateMutability": "nonpayable",
            "type": "function"
        },
        {
            "inputs": [
                {
                    "internalType": "address",
                    "name": "from",
                    "type": "address"
                },
                {
                    "internalType": "address",
                    "name": "to",
                    "type": "address"
                },
                {
                    "internalType": "uint256",
                    "name": "tokenId",
                    "type": "uint256"
                },
                {
                    "internalType": "bytes",
                    "name": "data",
                    "type": "bytes"
                }
            ],
            "name": "safeTransferFrom",
            "outputs": [],
            "stateMutability": "nonpayable",
            "type": "function"
        },
        {
            "inputs": [
                {
                    "internalType": "address",
                    "name": "operator",
                    "type": "address"
                },
                {
                    "internalType": "bool",
                    "name": "approved",
                    "type": "bool"
                }
            ],
            "name": "setApprovalForAll",
            "outputs": [],
            "stateMutability": "nonpayable",
            "type": "function"
        },
        {
            "inputs": [],
            "name": "supplyNFT",
            "outputs": [
                {
                    "internalType": "uint256",
                    "name": "",
                    "type": "uint256"
                }
            ],
            "stateMutability": "view",
            "type": "function"
        },
        {
            "inputs": [],
            "name": "supplyTotal",
            "outputs": [
                {
                    "internalType": "uint256",
                    "name": "",
                    "type": "uint256"
                }
            ],
            "stateMutability": "view",
            "type": "function"
        },
        {
            "inputs": [
                {
                    "internalType": "bytes4",
                    "name": "interfaceId",
                    "type": "bytes4"
                }
            ],
            "name": "supportsInterface",
            "outputs": [
                {
                    "internalType": "bool",
                    "name": "",
                    "type": "bool"
                }
            ],
            "stateMutability": "view",
            "type": "function"
        },
        {
            "inputs": [],
            "name": "symbol",
            "outputs": [
                {
                    "internalType": "string",
                    "name": "",
                    "type": "string"
                }
            ],
            "stateMutability": "view",
            "type": "function"
        },
        {
            "inputs": [
                {
                    "internalType": "uint256",
                    "name": "_id",
                    "type": "uint256"
                }
            ],
            "name": "tokenURI",
            "outputs": [
                {
                    "internalType": "string",
                    "name": "",
                    "type": "string"
                }
            ],
            "stateMutability": "view",
            "type": "function"
        },
        {
            "inputs": [
                {
                    "internalType": "address",
                    "name": "from",
                    "type": "address"
                },
                {
                    "internalType": "address",
                    "name": "to",
                    "type": "address"
                },
                {
                    "internalType": "uint256",
                    "name": "tokenId",
                    "type": "uint256"
                }
            ],
            "name": "transferFrom",
            "outputs": [],
            "stateMutability": "nonpayable",
            "type": "function"
        },
        {
            "inputs": [],
            "name": "withdraw",
            "outputs": [],
            "stateMutability": "nonpayable",
            "type": "function"
        }
    ],
    "bytecode": "0x6080604052600460095566038d7ea4c68000600a5560405180608001604052806044815260200162002d3260449139600b9080519060200190620000459291906200013b565b503480156200005357600080fd5b506040518060400160405280600781526020017f6e6f6f624e4654000000000000000000000000000000000000000000000000008152506040518060400160405280600381526020017f4e4f4200000000000000000000000000000000000000000000000000000000008152508160009080519060200190620000d89291906200013b565b508060019080519060200190620000f19291906200013b565b50505033600760006101000a81548173ffffffffffffffffffffffffffffffffffffffff021916908373ffffffffffffffffffffffffffffffffffffffff1602179055506200024f565b82805462000149906200021a565b90600052602060002090601f0160209004810192826200016d5760008555620001b9565b82601f106200018857805160ff1916838001178555620001b9565b82800160010185558215620001b9579182015b82811115620001b85782518255916020019190600101906200019b565b5b509050620001c89190620001cc565b5090565b5b80821115620001e7576000816000905550600101620001cd565b5090565b7f4e487b7100000000000000000000000000000000000000000000000000000000600052602260045260246000fd5b600060028204905060018216806200023357607f821691505b602082108103620002495762000248620001eb565b5b50919050565b612ad3806200025f6000396000f3fe60806040526004361061012a5760003560e01c80636352211e116100ab578063a22cb4651161006f578063a22cb465146103d3578063af640d0f146103fc578063b88d4fde14610427578063c87b56dd14610450578063e651e04c1461048d578063e985e9c5146104b85761012a565b80636352211e146102d857806370a08231146103155780638da5cb5b1461035257806395d89b411461037d578063a035b1fe146103a85761012a565b806323b872dd116100f257806323b872dd146102285780633ccfd60b1461025157806340c10f191461026857806342842e0e146102845780634c73501a146102ad5761012a565b806301ffc9a71461012f57806306fdde031461016c578063081812fc14610197578063095ea7b3146101d457806312065fe0146101fd575b600080fd5b34801561013b57600080fd5b5061015660048036038101906101519190611c26565b6104f5565b6040516101639190611c6e565b60405180910390f35b34801561017857600080fd5b506101816105d7565b60405161018e9190611d22565b60405180910390f35b3480156101a357600080fd5b506101be60048036038101906101b99190611d7a565b610669565b6040516101cb9190611de8565b60405180910390f35b3480156101e057600080fd5b506101fb60048036038101906101f69190611e2f565b6106af565b005b34801561020957600080fd5b506102126107c6565b60405161021f9190611e7e565b60405180910390f35b34801561023457600080fd5b5061024f600480360381019061024a9190611e99565b6107ce565b005b34801561025d57600080fd5b5061026661082e565b005b610282600480360381019061027d9190611e2f565b6108d1565b005b34801561029057600080fd5b506102ab60048036038101906102a69190611e99565b610972565b005b3480156102b957600080fd5b506102c2610992565b6040516102cf9190611e7e565b60405180910390f35b3480156102e457600080fd5b506102ff60048036038101906102fa9190611d7a565b610998565b60405161030c9190611de8565b60405180910390f35b34801561032157600080fd5b5061033c60048036038101906103379190611eec565b610a1e565b6040516103499190611e7e565b60405180910390f35b34801561035e57600080fd5b50610367610ad5565b6040516103749190611de8565b60405180910390f35b34801561038957600080fd5b50610392610afb565b60405161039f9190611d22565b60405180910390f35b3480156103b457600080fd5b506103bd610b8d565b6040516103ca9190611e7e565b60405180910390f35b3480156103df57600080fd5b506103fa60048036038101906103f59190611f45565b610b93565b005b34801561040857600080fd5b50610411610ba9565b60405161041e9190611e7e565b60405180910390f35b34801561043357600080fd5b5061044e600480360381019061044991906120ba565b610baf565b005b34801561045c57600080fd5b5061047760048036038101906104729190611d7a565b610c11565b6040516104849190611d22565b60405180910390f35b34801561049957600080fd5b506104a2610cd3565b6040516104af9190611e7e565b60405180910390f35b3480156104c457600080fd5b506104df60048036038101906104da919061213d565b610cdd565b6040516104ec9190611c6e565b60405180910390f35b60007f80ac58cd000000000000000000000000000000000000000000000000000000007bffffffffffffffffffffffffffffffffffffffffffffffffffffffff1916827bffffffffffffffffffffffffffffffffffffffffffffffffffffffff191614806105c057507f5b5e139f000000000000000000000000000000000000000000000000000000007bffffffffffffffffffffffffffffffffffffffffffffffffffffffff1916827bffffffffffffffffffffffffffffffffffffffffffffffffffffffff1916145b806105d057506105cf82610d71565b5b9050919050565b6060600080546105e6906121ac565b80601f0160208091040260200160405190810160405280929190818152602001828054610612906121ac565b801561065f5780601f106106345761010080835404028352916020019161065f565b820191906000526020600020905b81548152906001019060200180831161064257829003601f168201915b5050505050905090565b600061067482610ddb565b6004600083815260200190815260200160002060009054906101000a900473ffffffffffffffffffffffffffffffffffffffff169050919050565b60006106ba82610998565b90508073ffffffffffffffffffffffffffffffffffffffff168373ffffffffffffffffffffffffffffffffffffffff160361072a576040517f08c379a00000000000000000000000000000000000000000000000000000000081526004016107219061224f565b60405180910390fd5b8073ffffffffffffffffffffffffffffffffffffffff16610749610e26565b73ffffffffffffffffffffffffffffffffffffffff161480610778575061077781610772610e26565b610cdd565b5b6107b7576040517f08c379a00000000000000000000000000000000000000000000000000000000081526004016107ae906122e1565b60405180910390fd5b6107c18383610e2e565b505050565b600047905090565b6107df6107d9610e26565b82610ee7565b61081e576040517f08c379a000000000000000000000000000000000000000000000000000000000815260040161081590612373565b60405180910390fd5b610829838383610f7c565b505050565b600760009054906101000a900473ffffffffffffffffffffffffffffffffffffffff1673ffffffffffffffffffffffffffffffffffffffff163373ffffffffffffffffffffffffffffffffffffffff161461088857600080fd5b3373ffffffffffffffffffffffffffffffffffffffff166108fc479081150290604051600060405180830381858888f193505050501580156108ce573d6000803e3d6000fd5b50565b600a54816108df91906123c2565b6008819055506008543414610929576040517f08c379a000000000000000000000000000000000000000000000000000000000815260040161092090612468565b60405180910390fd5b60005b8181101561096d576001600660008282546109479190612488565b9250508190555061095a83600654611275565b8080610965906124de565b91505061092c565b505050565b61098d83838360405180602001604052806000815250610baf565b505050565b60095481565b6000806109a483611293565b9050600073ffffffffffffffffffffffffffffffffffffffff168173ffffffffffffffffffffffffffffffffffffffff1603610a15576040517f08c379a0000000000000000000000000000000000000000000000000000000008152600401610a0c90612572565b60405180910390fd5b80915050919050565b60008073ffffffffffffffffffffffffffffffffffffffff168273ffffffffffffffffffffffffffffffffffffffff1603610a8e576040517f08c379a0000000000000000000000000000000000000000000000000000000008152600401610a8590612604565b60405180910390fd5b600360008373ffffffffffffffffffffffffffffffffffffffff1673ffffffffffffffffffffffffffffffffffffffff168152602001908152602001600020549050919050565b600760009054906101000a900473ffffffffffffffffffffffffffffffffffffffff1681565b606060018054610b0a906121ac565b80601f0160208091040260200160405190810160405280929190818152602001828054610b36906121ac565b8015610b835780601f10610b5857610100808354040283529160200191610b83565b820191906000526020600020905b815481529060010190602001808311610b6657829003601f168201915b5050505050905090565b600a5481565b610ba5610b9e610e26565b83836112d0565b5050565b60065481565b610bc0610bba610e26565b83610ee7565b610bff576040517f08c379a0000000000000000000000000000000000000000000000000000000008152600401610bf690612373565b60405180910390fd5b610c0b8484848461143c565b50505050565b60606000610c1d611498565b905060006040518060400160405280600581526020017f2e6a736f6e00000000000000000000000000000000000000000000000000000081525090506000825111610c9d576040518060400160405280600581526020017f4572726f72000000000000000000000000000000000000000000000000000000815250610cca565b81610ca78561152a565b82604051602001610cba93929190612660565b6040516020818303038152906040525b92505050919050565b6000600654905090565b6000600560008473ffffffffffffffffffffffffffffffffffffffff1673ffffffffffffffffffffffffffffffffffffffff16815260200190815260200160002060008373ffffffffffffffffffffffffffffffffffffffff1673ffffffffffffffffffffffffffffffffffffffff16815260200190815260200160002060009054906101000a900460ff16905092915050565b60007f01ffc9a7000000000000000000000000000000000000000000000000000000007bffffffffffffffffffffffffffffffffffffffffffffffffffffffff1916827bffffffffffffffffffffffffffffffffffffffffffffffffffffffff1916149050919050565b610de4816115f8565b610e23576040517f08c379a0000000000000000000000000000000000000000000000000000000008152600401610e1a90612572565b60405180910390fd5b50565b600033905090565b816004600083815260200190815260200160002060006101000a81548173ffffffffffffffffffffffffffffffffffffffff021916908373ffffffffffffffffffffffffffffffffffffffff160217905550808273ffffffffffffffffffffffffffffffffffffffff16610ea183610998565b73ffffffffffffffffffffffffffffffffffffffff167f8c5be1e5ebec7d5bd14f71427d1e84f3dd0314c0f7b2291e5b200ac8c7c3b92560405160405180910390a45050565b600080610ef383610998565b90508073ffffffffffffffffffffffffffffffffffffffff168473ffffffffffffffffffffffffffffffffffffffff161480610f355750610f348185610cdd565b5b80610f7357508373ffffffffffffffffffffffffffffffffffffffff16610f5b84610669565b73ffffffffffffffffffffffffffffffffffffffff16145b91505092915050565b8273ffffffffffffffffffffffffffffffffffffffff16610f9c82610998565b73ffffffffffffffffffffffffffffffffffffffff1614610ff2576040517f08c379a0000000000000000000000000000000000000000000000000000000008152600401610fe990612703565b60405180910390fd5b600073ffffffffffffffffffffffffffffffffffffffff168273ffffffffffffffffffffffffffffffffffffffff1603611061576040517f08c379a000000000000000000000000000000000000000000000000000000000815260040161105890612795565b60405180910390fd5b61106e8383836001611639565b8273ffffffffffffffffffffffffffffffffffffffff1661108e82610998565b73ffffffffffffffffffffffffffffffffffffffff16146110e4576040517f08c379a00000000000000000000000000000000000000000000000000000000081526004016110db90612703565b60405180910390fd5b6004600082815260200190815260200160002060006101000a81549073ffffffffffffffffffffffffffffffffffffffff02191690556001600360008573ffffffffffffffffffffffffffffffffffffffff1673ffffffffffffffffffffffffffffffffffffffff168152602001908152602001600020600082825403925050819055506001600360008473ffffffffffffffffffffffffffffffffffffffff1673ffffffffffffffffffffffffffffffffffffffff16815260200190815260200160002060008282540192505081905550816002600083815260200190815260200160002060006101000a81548173ffffffffffffffffffffffffffffffffffffffff021916908373ffffffffffffffffffffffffffffffffffffffff160217905550808273ffffffffffffffffffffffffffffffffffffffff168473ffffffffffffffffffffffffffffffffffffffff167fddf252ad1be2c89b69c2b068fc378daa952ba7f163c4a11628f55a4df523b3ef60405160405180910390a4611270838383600161163f565b505050565b61128f828260405180602001604052806000815250611645565b5050565b60006002600083815260200190815260200160002060009054906101000a900473ffffffffffffffffffffffffffffffffffffffff169050919050565b8173ffffffffffffffffffffffffffffffffffffffff168373ffffffffffffffffffffffffffffffffffffffff160361133e576040517f08c379a000000000000000000000000000000000000000000000000000000000815260040161133590612801565b60405180910390fd5b80600560008573ffffffffffffffffffffffffffffffffffffffff1673ffffffffffffffffffffffffffffffffffffffff16815260200190815260200160002060008473ffffffffffffffffffffffffffffffffffffffff1673ffffffffffffffffffffffffffffffffffffffff16815260200190815260200160002060006101000a81548160ff0219169083151502179055508173ffffffffffffffffffffffffffffffffffffffff168373ffffffffffffffffffffffffffffffffffffffff167f17307eab39ab6107e8899845ad3d59bd9653f200f220920489ca2b5937696c318360405161142f9190611c6e565b60405180910390a3505050565b611447848484610f7c565b611453848484846116a0565b611492576040517f08c379a000000000000000000000000000000000000000000000000000000000815260040161148990612893565b60405180910390fd5b50505050565b6060600b80546114a7906121ac565b80601f01602080910402602001604051908101604052809291908181526020018280546114d3906121ac565b80156115205780601f106114f557610100808354040283529160200191611520565b820191906000526020600020905b81548152906001019060200180831161150357829003601f168201915b5050505050905090565b60606000600161153984611827565b01905060008167ffffffffffffffff81111561155857611557611f8f565b5b6040519080825280601f01601f19166020018201604052801561158a5781602001600182028036833780820191505090505b509050600082602001820190505b6001156115ed578080600190039150507f3031323334353637383961626364656600000000000000000000000000000000600a86061a8153600a85816115e1576115e06128b3565b5b04945060008503611598575b819350505050919050565b60008073ffffffffffffffffffffffffffffffffffffffff1661161a83611293565b73ffffffffffffffffffffffffffffffffffffffff1614159050919050565b50505050565b50505050565b61164f838361197a565b61165c60008484846116a0565b61169b576040517f08c379a000000000000000000000000000000000000000000000000000000000815260040161169290612893565b60405180910390fd5b505050565b60006116c18473ffffffffffffffffffffffffffffffffffffffff16611b97565b1561181a578373ffffffffffffffffffffffffffffffffffffffff1663150b7a026116ea610e26565b8786866040518563ffffffff1660e01b815260040161170c9493929190612937565b6020604051808303816000875af192505050801561174857506040513d601f19601f820116820180604052508101906117459190612998565b60015b6117ca573d8060008114611778576040519150601f19603f3d011682016040523d82523d6000602084013e61177d565b606091505b5060008151036117c2576040517f08c379a00000000000000000000000000000000000000000000000000000000081526004016117b990612893565b60405180910390fd5b805181602001fd5b63150b7a0260e01b7bffffffffffffffffffffffffffffffffffffffffffffffffffffffff1916817bffffffffffffffffffffffffffffffffffffffffffffffffffffffff19161491505061181f565b600190505b949350505050565b600080600090507a184f03e93ff9f4daa797ed6e38ed64bf6a1f0100000000000000008310611885577a184f03e93ff9f4daa797ed6e38ed64bf6a1f010000000000000000838161187b5761187a6128b3565b5b0492506040810190505b6d04ee2d6d415b85acef810000000083106118c2576d04ee2d6d415b85acef810000000083816118b8576118b76128b3565b5b0492506020810190505b662386f26fc1000083106118f157662386f26fc1000083816118e7576118e66128b3565b5b0492506010810190505b6305f5e100831061191a576305f5e10083816119105761190f6128b3565b5b0492506008810190505b612710831061193f576127108381611935576119346128b3565b5b0492506004810190505b606483106119625760648381611958576119576128b3565b5b0492506002810190505b600a8310611971576001810190505b80915050919050565b600073ffffffffffffffffffffffffffffffffffffffff168273ffffffffffffffffffffffffffffffffffffffff16036119e9576040517f08c379a00000000000000000000000000000000000000000000000000000000081526004016119e090612a11565b60405180910390fd5b6119f2816115f8565b15611a32576040517f08c379a0000000000000000000000000000000000000000000000000000000008152600401611a2990612a7d565b60405180910390fd5b611a40600083836001611639565b611a49816115f8565b15611a89576040517f08c379a0000000000000000000000000000000000000000000000000000000008152600401611a8090612a7d565b60405180910390fd5b6001600360008473ffffffffffffffffffffffffffffffffffffffff1673ffffffffffffffffffffffffffffffffffffffff16815260200190815260200160002060008282540192505081905550816002600083815260200190815260200160002060006101000a81548173ffffffffffffffffffffffffffffffffffffffff021916908373ffffffffffffffffffffffffffffffffffffffff160217905550808273ffffffffffffffffffffffffffffffffffffffff16600073ffffffffffffffffffffffffffffffffffffffff167fddf252ad1be2c89b69c2b068fc378daa952ba7f163c4a11628f55a4df523b3ef60405160405180910390a4611b9360008383600161163f565b5050565b6000808273ffffffffffffffffffffffffffffffffffffffff163b119050919050565b6000604051905090565b600080fd5b600080fd5b60007fffffffff0000000000000000000000000000000000000000000000000000000082169050919050565b611c0381611bce565b8114611c0e57600080fd5b50565b600081359050611c2081611bfa565b92915050565b600060208284031215611c3c57611c3b611bc4565b5b6000611c4a84828501611c11565b91505092915050565b60008115159050919050565b611c6881611c53565b82525050565b6000602082019050611c836000830184611c5f565b92915050565b600081519050919050565b600082825260208201905092915050565b60005b83811015611cc3578082015181840152602081019050611ca8565b83811115611cd2576000848401525b50505050565b6000601f19601f8301169050919050565b6000611cf482611c89565b611cfe8185611c94565b9350611d0e818560208601611ca5565b611d1781611cd8565b840191505092915050565b60006020820190508181036000830152611d3c8184611ce9565b905092915050565b6000819050919050565b611d5781611d44565b8114611d6257600080fd5b50565b600081359050611d7481611d4e565b92915050565b600060208284031215611d9057611d8f611bc4565b5b6000611d9e84828501611d65565b91505092915050565b600073ffffffffffffffffffffffffffffffffffffffff82169050919050565b6000611dd282611da7565b9050919050565b611de281611dc7565b82525050565b6000602082019050611dfd6000830184611dd9565b92915050565b611e0c81611dc7565b8114611e1757600080fd5b50565b600081359050611e2981611e03565b92915050565b60008060408385031215611e4657611e45611bc4565b5b6000611e5485828601611e1a565b9250506020611e6585828601611d65565b9150509250929050565b611e7881611d44565b82525050565b6000602082019050611e936000830184611e6f565b92915050565b600080600060608486031215611eb257611eb1611bc4565b5b6000611ec086828701611e1a565b9350506020611ed186828701611e1a565b9250506040611ee286828701611d65565b9150509250925092565b600060208284031215611f0257611f01611bc4565b5b6000611f1084828501611e1a565b91505092915050565b611f2281611c53565b8114611f2d57600080fd5b50565b600081359050611f3f81611f19565b92915050565b60008060408385031215611f5c57611f5b611bc4565b5b6000611f6a85828601611e1a565b9250506020611f7b85828601611f30565b9150509250929050565b600080fd5b600080fd5b7f4e487b7100000000000000000000000000000000000000000000000000000000600052604160045260246000fd5b611fc782611cd8565b810181811067ffffffffffffffff82111715611fe657611fe5611f8f565b5b80604052505050565b6000611ff9611bba565b90506120058282611fbe565b919050565b600067ffffffffffffffff82111561202557612024611f8f565b5b61202e82611cd8565b9050602081019050919050565b82818337600083830152505050565b600061205d6120588461200a565b611fef565b90508281526020810184848401111561207957612078611f8a565b5b61208484828561203b565b509392505050565b600082601f8301126120a1576120a0611f85565b5b81356120b184826020860161204a565b91505092915050565b600080600080608085870312156120d4576120d3611bc4565b5b60006120e287828801611e1a565b94505060206120f387828801611e1a565b935050604061210487828801611d65565b925050606085013567ffffffffffffffff81111561212557612124611bc9565b5b6121318782880161208c565b91505092959194509250565b6000806040838503121561215457612153611bc4565b5b600061216285828601611e1a565b925050602061217385828601611e1a565b9150509250929050565b7f4e487b7100000000000000000000000000000000000000000000000000000000600052602260045260246000fd5b600060028204905060018216806121c457607f821691505b6020821081036121d7576121d661217d565b5b50919050565b7f4552433732313a20617070726f76616c20746f2063757272656e74206f776e6560008201527f7200000000000000000000000000000000000000000000000000000000000000602082015250565b6000612239602183611c94565b9150612244826121dd565b604082019050919050565b600060208201905081810360008301526122688161222c565b9050919050565b7f4552433732313a20617070726f76652063616c6c6572206973206e6f7420746f60008201527f6b656e206f776e6572206f7220617070726f76656420666f7220616c6c000000602082015250565b60006122cb603d83611c94565b91506122d68261226f565b604082019050919050565b600060208201905081810360008301526122fa816122be565b9050919050565b7f4552433732313a2063616c6c6572206973206e6f7420746f6b656e206f776e6560008201527f72206f7220617070726f76656400000000000000000000000000000000000000602082015250565b600061235d602d83611c94565b915061236882612301565b604082019050919050565b6000602082019050818103600083015261238c81612350565b9050919050565b7f4e487b7100000000000000000000000000000000000000000000000000000000600052601160045260246000fd5b60006123cd82611d44565b91506123d883611d44565b9250817fffffffffffffffffffffffffffffffffffffffffffffffffffffffffffffffff048311821515161561241157612410612393565b5b828202905092915050565b7f456e6f7567682042616c616e6365000000000000000000000000000000000000600082015250565b6000612452600e83611c94565b915061245d8261241c565b602082019050919050565b6000602082019050818103600083015261248181612445565b9050919050565b600061249382611d44565b915061249e83611d44565b9250827fffffffffffffffffffffffffffffffffffffffffffffffffffffffffffffffff038211156124d3576124d2612393565b5b828201905092915050565b60006124e982611d44565b91507fffffffffffffffffffffffffffffffffffffffffffffffffffffffffffffffff820361251b5761251a612393565b5b600182019050919050565b7f4552433732313a20696e76616c696420746f6b656e2049440000000000000000600082015250565b600061255c601883611c94565b915061256782612526565b602082019050919050565b6000602082019050818103600083015261258b8161254f565b9050919050565b7f4552433732313a2061646472657373207a65726f206973206e6f74206120766160008201527f6c6964206f776e65720000000000000000000000000000000000000000000000602082015250565b60006125ee602983611c94565b91506125f982612592565b604082019050919050565b6000602082019050818103600083015261261d816125e1565b9050919050565b600081905092915050565b600061263a82611c89565b6126448185612624565b9350612654818560208601611ca5565b80840191505092915050565b600061266c828661262f565b9150612678828561262f565b9150612684828461262f565b9150819050949350505050565b7f4552433732313a207472616e736665722066726f6d20696e636f72726563742060008201527f6f776e6572000000000000000000000000000000000000000000000000000000602082015250565b60006126ed602583611c94565b91506126f882612691565b604082019050919050565b6000602082019050818103600083015261271c816126e0565b9050919050565b7f4552433732313a207472616e7366657220746f20746865207a65726f2061646460008201527f7265737300000000000000000000000000000000000000000000000000000000602082015250565b600061277f602483611c94565b915061278a82612723565b604082019050919050565b600060208201905081810360008301526127ae81612772565b9050919050565b7f4552433732313a20617070726f766520746f2063616c6c657200000000000000600082015250565b60006127eb601983611c94565b91506127f6826127b5565b602082019050919050565b6000602082019050818103600083015261281a816127de565b9050919050565b7f4552433732313a207472616e7366657220746f206e6f6e20455243373231526560008201527f63656976657220696d706c656d656e7465720000000000000000000000000000602082015250565b600061287d603283611c94565b915061288882612821565b604082019050919050565b600060208201905081810360008301526128ac81612870565b9050919050565b7f4e487b7100000000000000000000000000000000000000000000000000000000600052601260045260246000fd5b600081519050919050565b600082825260208201905092915050565b6000612909826128e2565b61291381856128ed565b9350612923818560208601611ca5565b61292c81611cd8565b840191505092915050565b600060808201905061294c6000830187611dd9565b6129596020830186611dd9565b6129666040830185611e6f565b818103606083015261297881846128fe565b905095945050505050565b60008151905061299281611bfa565b92915050565b6000602082840312156129ae576129ad611bc4565b5b60006129bc84828501612983565b91505092915050565b7f4552433732313a206d696e7420746f20746865207a65726f2061646472657373600082015250565b60006129fb602083611c94565b9150612a06826129c5565b602082019050919050565b60006020820190508181036000830152612a2a816129ee565b9050919050565b7f4552433732313a20746f6b656e20616c7265616479206d696e74656400000000600082015250565b6000612a67601c83611c94565b9150612a7282612a31565b602082019050919050565b60006020820190508181036000830152612a9681612a5a565b905091905056fea2646970667358221220f16c49cf9cc3605abdf23dc6dda5a69dc45f00d955460175f3c9983a47802de164736f6c634300080d003368747470733a2f2f697066732e696f2f697066732f516d63324e4a4c6b42756d634c3147345672594b6e36623172466d31455676413752487368315464715a546658472f",
    "linkReferences": {},
    "deployedLinkReferences": {}
}